:020000040800F2
:10000000000002205909000855090008CD440008E5
:1000100055090008550900085509000800000000AE
:10002000000000000000000000000000550900086A
:100030005509000800000000550900085144000857
:100040005509000855090008550900085509000818
:100050005509000855090008550900085509000808
:1000600055090008550900085509000855400008C1
:1000700061400008B92D00086D4000087940000873
:10008000E9FC0008853500085509000855090008F5
:1000900055090008550900085509000855090008C8
:1000A00055090008550900085509000855090008B8
:1000B00015F1000821F100082DF10008B9350008FC
:1000C00055090008C53500085509000885E90008EC
:1000D00091E900081DFB000849FB00087DFB0008B2
:1000E00055090008550900080000000055090008DE
:1000F0005509000855090008550900085509000868
:10010000550900085509000839F100089DE9000863
:10011000B1FB0008E5FB0008550900085509000877
:100120005509000855090008C1E90008F5E900086B
:100130001DFD00085509000855090008550900086B
:1001400000000000000000000000000000000000AF
:1001500055090008550900085509000819FC000850
:10016000D13500085509000861440008854400089D
:1001700055090008A9440008550900085509000858
:1001800055090008550900084DFC000881FC0008CD
:10019000A9E90008B5E90008550900085509000853
:1001A00055090008550900085509000855090008B7
:1001B000753D000855090008550900085509000853
:1001C0005509000855090008550900085509000897
:1001D0005509000855090008550900085509000887
:1001E0005509000855090008550900085509000877
:1001F0005509000855090008550900085509000867
:100200005509000855090008550900085509000856
:100210005509000855090008550900085509000846
:10022000550900085509000855090008000000009C
:10023000550900085509000800000000550900088C
:100240005509000855090008550900085509000816
:100250005509000855090008550900085509000806
:1002600055090008550900085509000855090008F6
:100270005509000855090008B5FC000800000000F9
:10028000550900085509000855090008000000003C
:08029000000000005509000800
:1002980010B5054C237833B9044B13B10448AFF3B8
:1002A80000800123237010BD180400240000000002
:1002B8007036010808B5034B1BB103490348AFF377
:1002C800008008BD000000001C04002470360108EE
:1002D80081F0004102E000BF83F0004330B54FEAEF
:1002E80041044FEA430594EA050F08BF90EA020F5C
:1002F8001FBF54EA000C55EA020C7FEA645C7FEAEF
:10030800655C00F0E2804FEA5454D4EB5555B8BF11
:100318006D420CDD2C4480EA020281EA030382EA82
:10032800000083EA010180EA020281EA0303362D14
:1003380088BF30BD11F0004F4FEA01314FF4801CE7
:100348004CEA113102D0404261EB410113F0004FF9
:100358004FEA03334CEA133302D0524263EB4303B0
:1003680094EA050F00F0A780A4F10104D5F1200E4E
:100378000DDB02FA0EFC22FA05F2801841F10001A9
:1003880003FA0EF2801843FA05F359410EE0A5F17D
:1003980020050EF1200E012A03FA0EFC28BF4CF0AE
:1003A800020C43FA05F3C01851EBE37101F0004564
:1003B80007D54FF0000EDCF1000C7EEB00006EEB71
:1003C8000101B1F5801F1BD3B1F5001F0CD34908FB
:1003D8005FEA30004FEA3C0C04F101044FEA445252
:1003E80012F5800F80F09A80BCF1004F08BF5FEAD9
:1003F800500C50F1000041EB045141EA050130BDB9
:100408005FEA4C0C404141EB0101013C28BFB1F5CA
:10041800801FE9D291F0000F04BF01460020B1FA15
:1004280081F308BF2033A3F10B03B3F120020CDAE8
:100438000C3208DD02F1140CC2F10C0201FA0CF0C6
:1004480021FA02F10CE002F11402D8BFC2F1200C2B
:1004580001FA02F120FA0CFCDCBF41EA0C019040E1
:10046800E41AA2BF01EB0451294330BD6FEA04042A
:100478001F3C1CDA0C340EDC04F11404C4F1200215
:1004880020FA04F001FA02F340EA030021FA04F327
:1004980045EA030130BDC4F10C04C4F1200220FA7E
:1004A80002F001FA04F340EA0300294630BD21FABC
:1004B80004F0294630BD94F0000F83F4801306BF82
:1004C80081F480110134013D4EE77FEA645C18BF76
:1004D8007FEA655C29D094EA050F08BF90EA020F0D
:1004E80005D054EA000C04BF1946104630BD91EA05
:1004F800030F1EBF0021002030BD5FEA545C05D108
:100508004000494128BF41F0004130BD14F5800446
:100518003CBF01F5801130BD01F0004545F0FE41BA
:1005280041F470014FF0000030BD7FEA645C1ABFEF
:10053800194610467FEA655C1CBF0B46024650EA26
:10054800013406BF52EA033591EA030F41F4002152
:1005580030BD00BF90F0000F04BF0021704730B5D8
:100568004FF4806404F132044FF000054FF00001AD
:1005780050E700BF90F0000F04BF0021704730B56E
:100588004FF4806404F1320410F0004548BF404243
:100598004FF000013EE700BF42004FEAE2014FEA98
:1005A80031014FEA02701FBF12F07F4393F07F4F73
:1005B80081F06051704732F07F4208BF704793F076
:1005C8007F4F04BF41F40021704730B54FF4607489
:1005D80001F0004521F000411CE700BF50EA01028C
:1005E80008BF704730B54FF000050AE050EA010235
:1005F80008BF704730B511F0004502D5404261EBA5
:1006080041014FF4806404F132045FEA915C3FF4E5
:10061800D8AE4FF003025FEADC0C18BF03325FEA82
:10062800DC0C18BF033202EBDC02C2F1200300FA33
:1006380003FC20FA02F001FA03FE40EA0E0021FA58
:1006480002F11444BDE600BF53B94AB9002908BFF6
:1006580000281CBF4FF0FF314FF0FF3000F074B995
:10066800ADF1080C6DE904CE00F006F8DDF804E001
:10067800DDE9022304B070472DE9F047089D0446E0
:100688008E46002B4DD18A42944669D9B2FA82F23D
:1006980052B101FA02F3C2F1200120FA01F10CFA79
:1006A80002FC41EA030E94404FEA1C48210CBEFBB1
:1006B800F8F61FFA8CF708FB16E341EA034306FB3A
:1006C80007F199420AD91CEB030306F1FF3080F0C9
:1006D8001F81994240F21C81023E63445B1AA4B216
:1006E800B3FBF8F008FB103344EA034400FB07F7B8
:1006F800A7420AD91CEB040400F1FF3380F00A81F9
:10070800A74240F207816444023840EA0640E41BED
:1007180000261DB1D4400023C5E900433146BDE899
:10072800F0878B4209D9002D00F0EF800026C5E93B
:10073800000130463146BDE8F087B3FA83F6002E53
:100748004AD18B4202D3824200F2F980841A61EBCB
:10075800030301209E46002DE0D0C5E9004EDDE7E9
:1007680002B9FFDEB2FA82F2002A40F09280A1EBD1
:100778000C014FEA1C471FFA8CFE0126200CB1FB26
:10078800F7F307FB131140EA01410EFB03F088421F
:1007980008D91CEB010103F1FF3802D2884200F2AC
:1007A800CB804346091AA4B2B1FBF7F007FB10113E
:1007B80044EA01440EFB00FEA64508D91CEB0404DC
:1007C80000F1FF3102D2A64500F2BB800846A4EB37
:1007D8000E0440EA03409CE7C6F12007B34022FA22
:1007E80007FC4CEA030C20FA07F401FA06F31C4351
:1007F800F9404FEA1C4900FA06F3B1FBF9F8200C5E
:100808001FFA8CFE09FB181140EA014108FB0EF0A3
:10081800884202FA06F20BD91CEB010108F1FF3AF3
:1008280080F08880884240F28580A8F102086144FF
:10083800091AA4B2B1FBF9F009FB101144EA01410D
:1008480000FB0EFE8E4508D91CEB010100F1FF34B8
:100858006CD28E456AD90238614440EA0840A0FB50
:100868000294A1EB0E01A142C846A64656D353D026
:100878005DB1B3EB080261EB0E0101FA07F722FA4A
:1008880006F3F1401F43C5E9007100263146BDE873
:10089800F087C2F12003D8400CFA02FC21FA03F3D6
:1008A800914001434FEA1C471FFA8CFEB3FBF7F057
:1008B80007FB10360B0C43EA064300FB0EF69E427C
:1008C80004FA02F408D91CEB030300F1FF382FD215
:1008D8009E422DD9023863449B1B89B2B3FBF7F6BD
:1008E80007FB163341EA034106FB0EF38B4208D996
:1008F8001CEB010106F1FF3816D28B4214D9023ED7
:100908006144C91A46EA004638E72E46284605E7F4
:100918000646E3E61846F8E64B45A9D2B9EB0208C5
:1009280064EB0C0E0138A3E74646EAE7204694E755
:100938004046D1E7D0467BE7023B614432E7304688
:1009480009E76444023842E7704700BFFEE700BF8A
:100958000B480C4A904203D0121A0B4912F050FB74
:100968000A480B4A904203D0121A002112F056FB93
:1009780004F00EF812F020FB00F060F9FEE700BF6B
:100988000000002414040024A036010818040024E0
:100998001CAC0124704700BF704700BF704700BF00
:1009A800002A00F098802DE9F84F0D461646D1F838
:1009B80000800024484F08EB8408484811F09CFC4C
:1009C8006B684FEA840A464888ED000A013403EB55
:1009D8000A0B11F091FCD5F800808BED000A08EBAA
:1009E8000A0999ED000A11F0E3FF6B6889ED000A26
:1009F8009A449AED000A11F0DBFF3A4B45F6C051D4
:100A0800B6EE003BB5EE005BA642D7E901C08AED21
:100A1800000A0CEB0002D7ED004A99ED007AA3FB1F
:100A280002BA02F1010EB7EEC77A4FEA5A2A01FB61
:100A38001A22A3FB0EBA07EB82024FEA5A2A92ED5A
:100A4800036A07EB8C0201FB1AEE45F6BF5A07EB67
:100A58008E0EE244DEED036AA3FB0AEC76EEC66A6C
:100A68004FEA5C2C01FB1CACA6EEA46A6044C7F8F4
:100A780004C000F1010CA3FB00AEA3FB0CA34FEADA
:100A88005E2EB7EEC66A4FEA532301FB1E00A6EEA0
:100A9800037B01FB13CC07EB800007EB8C0CB7EE54
:100AA800C77B82ED037A90ED036ADCED036A99ED6A
:100AB800007A76EEC66AB7EEC77AA6EEA46AB7EEF3
:100AC800C66AA6EE057BB7EEC77B89ED007A7FF490
:100AD80072AFBDE8F88F704738040024E47C012425
:100AE800B87C0124F1197605F8B54C4C4C4D2046DC
:100AF8004C4F4D4E2DED068B00F06EF9204600F060
:100B080089F900212046B1EE08AA00F079F90121FF
:100B1800B0EE409A204600F073F902212046F0EE2C
:100B2800408ADFED429A00F06BF903212046B0EECF
:100B3800408A00F065F969EE0A0AB0EE000A11F081
:100B4800A3FD20EE290A284687ED000A85ED020A52
:100B580011F08CFDF0EE407A68EE8A0AB0EE000AD9
:100B6800C5ED077A11F090FD20EE290A304687ED91
:100B7800000A86ED020A11F079FD94F8441086ED1A
:100B8800070A01B1616E2A4894F8522094F802C10C
:100B980094F81231A2F1FF020468ACF1FF0CA3F142
:100BA800FF03B2FA82F22144BCFA8CFCB3FA83F355
:100BB800520903294FEA5C1C4FEA53131FDC002932
:100BC8001EDAA2EB0C02511C22D103EB4301194A95
:100BD800036002EB8102184885ED018A92ED021A42
:100BE800D2ED010A92ED000A86ED018A01F0E2FDDC
:100BF8000A48BDEC068BBDE8F84000F01BB903219C
:100C08000A44042A08BF0322A2EB0C02511CDCD0C0
:100C18001344042B08BF0323D7E700BF447B0124F8
:100C2800E47C012434000024B87C01240000204224
:100C38003404002404000024647C012480B50021CD
:100C48002F48304D00F08EF99FED2F8A30212C4827
:100C58004FF07C572D4C00F093F800260321DFF865
:100C6800BC904FF07A58DFF8B8A0254800F09CF8FF
:100C78002846B0EE480AC5F814906F60EF60C5F8D2
:100C880010A085ED028AAE6111F0F0FCC4F8149052
:100C980040F2011967602046E760002785ED070AE2
:100CA800B0EE480AC4F810A0C5F80480AE6184ED1F
:100CB800028AA6612F70A5F8289011F0D7FC144B72
:100CC8000322394684ED070A18462270114AA4F80F
:100CD8002890C4F80480A66112F0A0F945F6BF5226
:100CE8000346074843F80C6C43E9027200F070F8B9
:100CF8000949034800F042F8FFF7F6FEFCE700BF99
:100D0800447B0124E47C01240000C842B87C01240F
:100D18004404002400770100A90900083EC3AE3747
:100D280000803B4708B50D4800230D4A0360436126
:100D38000362C3630B4911F09FFC0B49084A0B4837
:100D480011F09AFC064A0849094811F095FC044A32
:100D580008490948BDE8084011F08EBC447B0124CD
:100D6800000000249D090008A1090008B87C01249E
:100D7800E47C0124A50900083804002400F066B9C1
:100D8800F8B5054600F082F905F1E80405F1F80721
:100D980054F8046B284600F095F9304601F048FCF9
:100DA800BC42F5D1F8BD00BFF8B5054600F052F9D0
:100DB80005F1E80405F1F80754F8046B284600F03B
:100DC80081F9304601F034FCBC42F5D1F8BD00BFD2
:100DD800183001F081BF00BF10B50446683001F03B
:100DE80003FC04F1880001F0FFFB04F1A80001F006
:100DF800FBFB04F1C800BDE8104001F0F5BB00BFE3
:100E0800042928BF00213A3150F8213093ED030A14
:100E1800704700BF10B50446403001F065FC04F18E
:100E2800F80001F009FD04F58470BDE8104001F0F8
:100E380003BD00BF00F5907001F0D6BC10B50446A4
:100E480086B01C2000F0ECF80346172004F59074D7
:100E5800ADF80C3000F0E4F803461620ADF8103079
:100E680000F0DEF80023ADF8140020460093059B3F
:100E7800DDE9031201F076FC9FED071A2046F0EE3B
:100E8800410AB0EE410A01F095FC204606B0BDE8E3
:100E9800104001F0A9BC00BF000000002DE9F0419E
:100EA80098B005461020002400F0BAF8ADF8080004
:100EB8000222029906A805F1180801F0EBFC11209E
:100EC80000F0AEF8ADF80C00022203990DF12A00EB
:100ED80005F1680601F0DEFC122000F0A1F8ADF87B
:100EE8001000022204990FA805F1EC0701F0D2FCCA
:100EF800132000F095F8ADF81400022205990DF1C1
:100F08004E0001F0C7FC042306A940461A4601F02A
:100F1800D5FC05F1A80305F18802C5F8F03005F104
:100F2800C803C5E93A62C5F8F430E1B2404601F0B9
:100F3800E9FE014628460134019100F0C3F8002378
:100F48003046DFED070A01991A4601F01BFB042C15
:100F580002D057F8046BE8E718B0BDE8F08100BF8D
:100F68006F12033BF0B5044689B0019100F056F8C2
:100F78000199204600F062F91B2000F051F8034661
:100F880004F1F8079FED240AADF8183004F58475CC
:100F98000699384601F036FC182000F041F803465F
:100FA8009FED1D0A2846ADF81C30079901F02AFC70
:100FB8001A20C4E9467500F033F80346192004F1F5
:100FC800E805ADF80C3000F02BF803460E20ADF81C
:100FD800103000F025F8ADF8140004F140009FED42
:100FE8000E0A059BDDE9031201F04EFB2046FFF7D0
:100FF80025FF2046FFF752FF3021204600F046F833
:1010080055F8046B204600F05DF8304601F010FBFF
:10101800BD42F5D109B0F0BD00000000704700BF27
:10102800202882B009D8084B03EB400213F810308F
:10103800507843EA002002B0704701230C2043EAAD
:10104800002002B0704700BF78300108143001F06A
:1010580065BA00BF38B500F1140504462DED028BC2
:10106800284601F017FA284601F010FA2846B0EE93
:10107800408A01F0F9F9D0ED007AF8EE677A88EE47
:10108800277ABDEC028B84ED0E7A38BD38B500F1B5
:10109800140504462DED028B284601F0E9F928468F
:1010A80001F0F4F92846B0EE408A01F0DDF9D0ED00
:1010B800007AF8EE677A88EE277ABDEC028B84ED29
:1010C8000E7A38BD90ED0E0A704700BF10B540F299
:1010D80003338EB000244FF60B7240F20341ADF893
:1010E800083009A80123ADF81020ADF824202246C5
:1010F800ADF80C100094029907940C94CDE90544BE
:10110800CDE90A4401F000FF04A80123224603990F
:10111800009401F0F9FE09A801F0DCFF10B90120E4
:101128000EB010BD04A801F0D5FFA0420CBF0220EC
:1011380020460EB010BD00BF2DE9F04103239AB040
:101148004FF0010800250746CDE91438374BCDE9A3
:10115800105340F20453CDE91658ADF84830FFF764
:10116800B5FF4045064621D0022840D040F601325E
:101178002F4B0BAC1895ADF82C200B98CDF864804C
:10118800CDF84A3000F0DEF810A907F13C0002F073
:10119800EBFF284B0FCB84E80F00FA6B214607F1D1
:1011A800140001F029F91AB0BDE8F0811023204A93
:1011B80006A906908DF828300BAC1F4BCDF84A20B5
:1011C80007930295CDE91805CDE9080502A802F0B4
:1011D80001FA0823029A03A92046ADF80C608DF89D
:1011E8000E50049605930B9500F0ECF8CCE7002020
:1011F80001210F4B0BAC42460095CDF84A304FF613
:101208000B730C95ADF82C302B46CDE9180140F640
:1012180001312046ADF818100699CDE90D5501F0B9
:1012280073FE2946204601F061FFADE7040204047D
:1012380004060403343001080704010B2DE9F047C4
:1012480004462DED028B82B000294DD0012140F2D9
:10125800011200230091ADF804208DF80630364ABB
:101268000127364B04F10409354904F12908626065
:1012780040F20272A36040F60663E16004F1250AB9
:10128800A4F82520A4F82930278284F8277084F848
:101298002B7003F033FB054603F088F969460646D0
:1012A80050BB4DB304F130008DF8067003F0A8FA76
:1012B800072D3CD104F114052046FFF73DFF2846D1
:1012C80001F0E4F82846B0EE408A01F0CDF8D0ED00
:1012D800007AF8EE677A88EE277A84ED0E7A02B003
:1012E800BDEC028BBDE8F08740F2011300918DF848
:1012F8000610ADF80430B2E704F1300003F080FACC
:10130800072D11D04946204602F0B2FB0EB9002D38
:10131800D0D1504601F0F4FE404601F0F1FE04F150
:10132800120000F079F9C5E7002EF2D1C2E749466C
:10133800204602F09DFBBDE70508050905070506DF
:10134800050A060610B584B003460124ADF804006A
:1013580003A8ADF80C30ADF80E4001F0D1FE2146DF
:1013680003A801F0B7FF204603F01EF9002103A8E7
:1013780001F0B0FF204603F017F9214603A801F059
:10138800A9FF04B010BD00BF10B5C2F3002384B09C
:101398000C46017C8DF80D2043EA4402FA2402230E
:1013A8008DF80C2003AA009402F0AEF918B10124BC
:1013B800204604B010BD04460A2003F0F5F8204684
:1013C80004B010BD034670B543F8042B044684B03E
:1013D80007C983E80700A37983B91A210B461E229F
:1013E800FA2523742046ADF80C20022303AA0095A1
:1013F80002F08AF928B1012004B070BD1B210B4608
:10140800EDE70A2003F0D0F84FF4B8520095022314
:10141800ADF80C20204603AA217C02F075F90028BB
:10142800E9D10A2003F0C0F841F2027200950223C4
:10143800ADF80C20204603AA217C02F065F90028AB
:10144800D9D10A2003F0B0F8042200950223ADF8A0
:101458000C20204603AA217C02F056F90028CAD1A4
:101468000A2003F0A1F8062200950223ADF80C200B
:10147800204603AA217C02F047F90028BBD10A20A4
:1014880003F092F841F2082200950223ADF80C20EF
:10149800204603AA217C02F037F90028ABD10A20A4
:1014A800064603F081F80095022303AA217C204612
:1014B800ADF80C6002F028F900289CD1304603F002
:1014C80073F8009522790C232046002A8DF80C30F9
:1014D80003AA4FF0020314BF622142218DF80D10B8
:1014E800217C02F011F9002885D1304603F05CF820
:1014F8002279D4E902310B43DBB20AB943F0400345
:1015080062790AB143F020030E22FA258DF80D30D6
:101518002046009502238DF80C2003AA217C02F0B6
:10152800F3F800287FF467AF0A2003F03DF8102293
:1015380000950223ADF80C20204603AA217C02F076
:10154800E3F800287FF457AF0A2003F02DF81221A2
:1015580000950223ADF80C1003AA217C204602F066
:10156800D3F800287FF447AF0A2003F01DF80122C2
:1015780009212046FFF708FF003818BF01203BE784
:10158800F0B5102387B0234C01220025012600273F
:1015980002A920460195CDE902234FF48052CDE9F6
:1015A80004670BF091FA642003F04EFC02A94FF493
:1015B80080522046CDE9046702261027CDE902674C
:1015C8000BF082FA0322102302A92046CDE9022358
:1015D80000230422CDE904234FF480520BF074FA5F
:1015E80040F23223042202A9019310232046CDE9B8
:1015F8000223019A012305924FF4805204930BF0C1
:1016080063FA40F6060120460BF07EFA284607B03A
:10161800F0BD00BF187D01241C4B00221C494FF06F
:10162800400C30B5054689B00220596007219A6000
:101638001A620124DA620A224FF4006EDC60069214
:101648002022CDE9000104200821CDE90201032070
:101658001021CDE9040108206946C3E904024FF4CA
:10166800C072181DC3E906C24FF48052C3E909E2EB
:101678000BF000FA38B92846FFF782FF003818BF88
:10168800012009B030BD204609B030BD147D0124C9
:1016980040410052614A0021D0B513688EB00A91CA
:1016A800002B40F0B9805E4B01214FF683700C246B
:1016B80011600221D3F8D4200026032742F4805277
:1016C800C3F8D420D3F8D42002F480520092009AB0
:1016D800D3F8E02042F01002C3F8E020D3F8E0206D
:1016E80002F010020192019AD3F8E02042F0400281
:1016F800C3F8E020D3F8E02002F040020292029AF8
:10170800D3F8E02042F00802C3F8E020D3F8E02044
:1017180002F008020392039AD3F8E02042F48072A0
:10172800C3F8E020D3F8E02002F480720492049A0F
:10173800D3F8E02042F08002C3F8E020D3F8E0209C
:1017480002F080020592059AD3F8E02042F02002C8
:10175800C3F8E020D3F8E02002F020020692069AAF
:10176800D3F8E02042F00402C3F8E020D3F8E030D8
:101778000C9403F0040307930323079A0B93CDE912
:10178800080108A9274805F0E9FC48F237120223A6
:1017980008A925480C94CDE90823CDE90A6705F086
:1017A800DDFC4CF20372022308A920480C94CDE911
:1017B8000823CDE90A6705F0D1FC40F2FF62022355
:1017C80008A91B480C94CDE90823CDE90A6705F060
:1017D800C5FC4FF60C72022308A916480C94CDE9F3
:1017E8000823CDE90A6705F0B9FC4FF63F0202234A
:1017F80008A911480C94CDE90823CDE90A6705F03A
:10180800ADFC2022022308A90A480C94CDE90A67F6
:10181800CDE9082305F0A2FC0EB0D0BD107D01244F
:10182800004402580010025800180258000C0258D0
:1018380000200258001C0258001402582DE9F04FED
:10184800DFF8108406460D46144608F118002DED01
:10185800028B89B000AF02F07FFDD8F8183073B35F
:10186800D8F81C30D8F80490002B43690BBF4FF010
:10187800080A4FF0100A4FF0020B4FF0040BB9F1B1
:10188800000F2AD0A200EA46012B02F1070222F03B
:101898000702ADEB020D6846ADEB020D694600F09C
:1018A8003F81022B00F0D680002B6FD02246C8471C
:1018B800D5462437BD46BDEC028BBDE8F08FD8F87D
:1018C8001C30002BF5D0D8F804904FF0080A4FF0E0
:1018D800020B4369B9F1000FD4D1FB61D8F800308D
:1018E800BB61002BE5D0D54802F0A8FD6B46BBF1E3
:1018F800020F786108EE103AFB6900F083816A46AE
:101908005146A2EBC40295466200EA46B2FBFBF2DE
:10191800AAEBC40085460AEB8200EE46F861ADEBFF
:10192800010DF8690EEB820CC7F810C0EC46ADEB60
:10193800010D00EB8201CCF80400CCF8081001EB93
:1019480082013869E946CCF80C1000EB8201CCF82A
:1019580000A001EB8202C9E900E0C9E90212012BEB
:1019680000F06483022B00F06C82002B00F0808171
:10197800620849466046BB69984718EE103A243712
:101988009D46BD46BDEC028BBDE8F08F002C8DD086
:101998001A46D8ED0C6A9FEDB27A8446331D36F9A3
:1019A80022E00CF1080C07EE90EA33F922E002324B
:1019B800F8EEE77A944267EE877A67EEA67A4CEDFE
:1019C800027A07EE90EAF8EEE77A67EE877A67EE32
:1019D800A67A4CED017AE2D8F9612246C847984EBA
:1019E800D8ED0D6A0020F9692B1D9FED9E7A9FEDB9
:1019F8009E6ADFED9E5A22E0F4EEC67AF1EE10FA06
:101A0800C0F2C88447F6FE72D1ED017A45F820206D
:101A180066EEA77AF4EEC77AF1EE10FA40F2F0809B
:101A2800F4EEC67AF1EE10FAC0F2D58447F6FE72EB
:101A380043F820200230083184427FF639AFD1EDD7
:101A4800007A66EEA77AF4EEC77AF1EE10FAD3D8E8
:101A58003246D9E7002C3FF429AFD8ED0C6A84460A
:101A68009FED787A0022331D8E4656F822100CF12D
:101A7800080C07EE901A53F822100232F8EEE77AB3
:101A8800944267EE877A67EEA67A4CED027A07EE03
:101A9800901AF8EEE77A67EE877A67EEA67A4CED49
:101AA800017AE2D871462246C7F81CE0C847664E5C
:101AB800D8ED0D6A0020F9692B1D9FED6A7A9FED1C
:101AC8006A6ADFF894C120E0F4EEC67AF1EE10FA03
:101AD800C0F279843246D1ED017A45F8202066EECD
:101AE800A77AF4EEC77AF1EE10FA40F28780F4EEA6
:101AF800C67AF1EE10FAC0F25E84324643F820202E
:101B08000230083184427FF6D3AED1ED007A66EE1A
:101B1800A77AF4EEC77AF1EE10FAD5D86246DAE77A
:101B2800002C3FF4C3AED8ED0C6A86469FED477A89
:101B38004FF0000C331D56F82C200EF1080E82F4DD
:101B48000002A2F5000207EE902A53F82C200CF1AF
:101B5800020CF8EEE77A82F400026445A2F500026E
:101B680067EE877A67EEA67A4EED027A07EE902A3C
:101B7800F8EEE77A67EE877A67EEA67A4EED017A95
:101B8800D9D8F9612246C847314ED8ED0D6A0020F0
:101B9800F9692B1D9FED337A9FED336ADFF8BCC0DE
:101BA8001FE0F4EEC67AF1EE10FAC0F2FC8332467A
:101BB800D1ED017A45F8202066EEA77AF4EEC77ACF
:101BC800F1EE10FA18D9F4EEC67AF1EE10FAC0F276
:101BD800DA83324643F820200230083184427FF607
:101BE80067AED1ED007A66EEA77AF4EEC77AF1EE29
:101BF80010FAD6D86246DBE76246EBE762467DE735
:101C0800324615E7A100D6466208073121F00701E0
:101C1800ADEB010DEA46ADEB010D6946ADEB0E0DDE
:101C28000AEB8200EC46ADEB0E0D01EB8202F86187
:101C3800E946CCE900A0C9E9001290E6687D0124D4
:101C48000280FFFF000000300082FF7F00000034A8
:101C580082FF7F004C7D0124007E00807E0080FF93
:101C68000000003804FF7FBF04FF7F3F00FEFF46EF
:101C7800002C00F0C982BBF1020FD8F8242000F034
:101C8800FA827969C7F8049002EB810E5FED0C5A6D
:101C98008A00DCF808100EF104007A611A46DCF8B4
:101CA8000C303B61331DD7F810903D61FD69C7E9E1
:101CB80002CB8C46834636F92210D8ED0C7A06EE14
:101CC800101A33F9221006EE901A3EF92210B8EED7
:101CD800C66A07EE101AF8EEE66A3BF92210B8EE6B
:101CE800C77A26EE256A66EEA56A27EE257A26EEDD
:101CF800276A66EEA76A27EE277A07EE901A510838
:101D08000232F8EEE77A0AEB8100944280ED006A2D
:101D180005EB810067EEA57AC0ED006A0CEB810047
:101D280009EB810180ED007A98ED0C7A67EE877AED
:101D3800C1ED007ABFD8D7F804903D69D7E902CB46
:101D480060466208BB6949469847D8F82C307A69DA
:101D5800D8ED0D6A1A441FED3D7A1FED3D6A2B1D23
:101D6800904602F1040A5FED3F5A0022A84ED9E9D5
:101D780000EC51E0F4EEC67AF1EE10FAC0F2C78238
:101D880047F6FE7045F822000CEB0100D0ED007A12
:101D980066EEA77AF4EEC77AF1EE10FA4BD9F4EEB4
:101DA800C67AF1EE10FAC0F2BA8247F6FE70BBF1BD
:101DB800020F43F822002BD0D9F808000844D0EDD0
:101DC800007A66EEA77AF4EEC77AF1EE10FA36D901
:101DD800F4EEC67AF1EE10FAC0F2CD8247F6FE7044
:101DE80048F82200D9F80C000144D1ED007A66EEDB
:101DF800A77AF4EEC77AF1EE10FA1ED9F4EEC67A95
:101E0800F1EE10FAC0F2AF8247F6FE714AF82210DE
:101E1800023294427FF6B1AD51080EEB8100890081
:101E2800D0ED007A66EEA77AF4EEC77AF1EE10FAF2
:101E3800A0D83046A6E73046B9E73146E6E730464F
:101E4800CEE7002C00F0E081BBF1020FD8F8243077
:101E580000F0E1817A69DCF8081003EB820EC7F81C
:101E680004909300DFED6B5A0EF1040000227B61B1
:101E7800DCF80C303B61331DD7F810903D61FD69EB
:101E8800C7E902CB8C46834656F82210D8ED0C7A67
:101E980007EE101A53F82210B8EEC76A07EE101AA8
:101EA8005EF82210F8EEC76A07EE101A26EE256AC9
:101EB8005BF82210B8EEC77A66EEA56A26EE276AA6
:101EC80027EE257A66EEA76A27EE277A07EE901A9C
:101ED80051080232F8EEE77A0AEB8100944280ED6D
:101EE800006A05EB810067EEA57AC0ED006A0CEB8D
:101EF800810009EB810180ED007A98ED0C7A67EE9C
:101F0800877AC1ED007ABFD8D7F804903D69D7E940
:101F180002CB60466208BB6949469847D8F82C301E
:101F28007A69D8ED0D6A1A449FED3E7A9FED3E6AB4
:101F3800131D9246DFF8E4C00022FB612B1D364ECC
:101F4800D9E9008E4EE0F4EEC67AF1EE10FAC0F24E
:101F5800FC81304645F822000EEB0100D0ED007AF6
:101F680066EEA77AF4EEC77AF1EE10FA49D9F4EEE4
:101F7800C67AF1EE10FAC0F2EF813046BBF1020FDB
:101F880043F822002AD0D9F808000844D0ED007A96
:101F980066EEA77AF4EEC77AF1EE10FA35D9F4EEC8
:101FA800C67AF1EE10FAC0F2C98130464AF822002A
:101FB800D9F80C000144D1ED007A66EEA77AF4EE68
:101FC800C77AF1EE10FA1ED9F4EEC67AF1EE10FADD
:101FD800C0F2AD813146F86940F8221002329442CD
:101FE8007FF6CBAC510808EB81008900D0ED007A70
:101FF80066EEA77AF4EEC77AF1EE10FAA3D8604637
:10200800A8E76046BAE76146E5E76046CEE700BF65
:102018000280FFFF000000300082FF7F007E00800A
:102028000000003404FF7FBF04FF7F3F002C00F056
:10203800EB807A690021D8F82430C7F8109003EBB8
:10204800820ED7F81C909300FD610EF104021FED7B
:102058000C6A7B61331D154656F821204808D8EDD7
:102068000C6ABBF1020F82F40002A2F5000207EE2F
:10207800902A53F8212082F40002B8EEE77AA2F5FC
:10208800000227EE067A07EE902A0AEB8002F8EEA5
:10209800E77A27EE267A67EE867A82ED007A09EBF0
:1020A80080024FEA800067EEA67AC2ED007A27D058
:1020B8005EF8212082F40002A2F5000207EE902AC1
:1020C80055F8212082F40002B8EEE77AA2F5000262
:1020D80027EE067A07EE902ADCF80820F8EEE77A71
:1020E800024427EE267A67EE867A82ED007A98ED2A
:1020F8000C7ADCF80C2067EE877A0244C2ED007A8D
:1021080002318C42A8D8D7F8109060466208BB69A3
:102118004946FD699847D8F82C307A69D8ED0D6A98
:102128001A441FED407A1FED406A131D9246DFF8EE
:10213800C4C20022FB612B1DAB4ED9E9008E4EE0D4
:10214800F4EEC67AF1EE10FAC0F2C580304645F8D2
:1021580022000EEB0100D0ED007A66EEA77AF4EECD
:10216800C77AF1EE10FA49D9F4EEC67AF1EE10FA10
:10217800C0F2BF803046BBF1020F43F822002AD0DC
:10218800D9F808000844D0ED007A66EEA77AF4EE94
:10219800C77AF1EE10FA35D9F4EEC67AF1EE10FAF4
:1021A800C0F2AE8030464AF82200D9F80C0001444B
:1021B800D1ED007A66EEA77AF4EEC77AF1EE10FA5E
:1021C8001ED9F4EEC67AF1EE10FAC0F28B803146D1
:1021D800F86940F82210023294427FF6CEAB5108DB
:1021E80008EB81008900D0ED007A66EEA77AF4EE5C
:1021F800C77AF1EE10FAA3D86046A8E76046BAE7B6
:102208006146E5E76046CEE7224649466046BB6937
:102218009847FFF7B2BBC7F810B0002298ED0C6AD8
:10222800331DDFED726AD7F81CB0786956F82210B2
:1022380007EE901A53F82210B8EEE77A07EE901AD4
:1022480051080232F8EEE77A27EE267A0AEB810E79
:1022580094420BEB810167EEA67A27EE067A67EEC9
:10226800867A8EED007AC1ED007ADFD88300D7F840
:1022780010B07B614DE61A46C7F810B098ED0C6AAD
:10228800331DDFED5B6AD7F81CB0786936F9221088
:1022980007EE101A33F9221007EE901AB8EEC77A33
:1022A80051080232F8EEE77A27EE267A0AEB810E19
:1022B80094420BEB810167EEA67A27EE067A67EE69
:1022C800867A8EED007AC1ED007ADFD88300D7F8E0
:1022D80010B07B6134E5F0EE675AFEEEE45A15EE75
:1022E800900A34E7F0EE675AFEEEE45A15EE901ABB
:1022F8006EE7F0EE675AFEEEE45A15EE900A3AE7FA
:10230800F0EE675AFEEEE45A15EE900A4BE767EED8
:10231800A57AFDEEE77A17EE900A00B232E567EE8D
:10232800A57AFDEEE77A17EE900A00B23FE5F0EEE7
:10233800675AFEEEE05A15EE901A4CE6F0EE675A30
:10234800FEEEE05A15EE900A30E6F0EE675AFEEE21
:10235800E05A15EE900AFDE5F0EE675AFEEEE05AF7
:1023680015EE900A0AE667EEA57AFDEEE77A17EE13
:10237800901A09B24AE567EEA57AFDEEE77A17EEFC
:10238800900A00B22CE5F0EE675AFEEEE45A15EE1C
:10239800902A1FE467EEA57AFDEEE77A17EE902AF9
:1023A80012B2FFF731BBF0EE675AFEEEE45A15EEB3
:1023B800902AFFF7FDBBF0EE675AFEEEE05A15EEE5
:1023C800902AFFF79BBBF0EE675AFEEEE05A15EE37
:1023D800902AFFF780BB67EEA57AFDEEE77A17EE45
:1023E800902A12B2FFF724BB82FF7F000000003062
:1023F800000000387E0080FF30B5184C154685B0C7
:10240800046004F1080EEC460FC98EE80F00D4ED05
:10241800047AF5EEC07A8CE80F00F1EE10FA1ADDB6
:10242800B7EE006A94ED057A27EE277AC6EE276A9A
:1024380084ED0D7AC4ED0C6A6DB1204640F8185F42
:1024480001F08AFF064903690020064A2162A26258
:10245800E36005B030BD012005B030BD4C7D0124DE
:10246800002000300000003000680830704700BFCE
:10247800B1F5807F03680A4628BF4FF48072B1F532
:10248800807F9A6094BF0020012070470068183050
:1024980001F0C2BF70B504688AB0A369E160CBB12E
:1024A80004F11805284601F057FF8446EE46E66811
:1024B800BCE80F00AEE80F00BCE80F00AEE80F0064
:1024C8009CE803008EE8030069462846049601F05C
:1024D8004BFEF8B9E069D8B104F11C05284601F0B3
:1024E8003BFF8446EE46E468BCE80F00AEE80F0008
:1024F800BCE80F00AEE80F009CE803008EE803007C
:1025080069462846049401F02FFE003818BF0120C0
:102518000AB070BD01200AB070BD00BF30B50468B4
:1025280083B00D46E3694BB1A3680020E26A616A93
:102538009B00009004F11C0001F010FFA3680748FD
:10254800A26A9B00216A009004F1180001F006FFBE
:102558000020C4E9005003B030BD00BF4518000892
:1025680010B4074B4FF07E5130240022032019612C
:102578009C60D8605DF8044B5961C3E90622704736
:102588004C7D0124F6EE007A9FED166A20EE207A43
:102598000160F7EE006A80ED036A80ED020A27EE1B
:1025A800277AC6EE877AF4EEE67AF1EE10FA11DDB4
:1025B800F0EE667A4FF07E514FF0000C0276002262
:1025C800C0ED017AC0F814C0016143768276C0ED8F
:1025D800070A7047F4EEC67AF1EE10FAEAD5F0EE83
:1025E800467AE7E7000000000268037E128807EEDB
:1025F800902AFBEEC87A1BB1B7EE007A77EE677ABD
:10260800D0ED056A90ED047A77EEE67A437E67EEC0
:10261800877A0BB1F1EE677A90ED030A90ED017AB3
:1026280077EEC07AA7EE270A80ED030A704700BF4D
:10263800837E80ED020AABB9D0ED077A27EE800AD7
:10264800F6EE007AB7EE007A20EE270AC7EE007A97
:10265800F4EEC77AF1EE10FA07DDF0EE477AC0ED36
:10266800017A7047DFED067AE8E7F5EEC07AF1EE19
:1026780010FAF4D5DFED037AC0ED017A704700BF98
:102688006F12033B0000000030B585B004460025FA
:10269800ADF80C10ADF80820ADF8043001F082FF59
:1026A800BDF80C204FF48073206004F118002283D9
:1026B800BDF808206383E383A283257100F020FD21
:1026C80004F11C0000F01CFD9FED060A019904F1BD
:1026D800080000F097F84FF6FF736562238405B091
:1026E80030BD00BF00000000F8B5044601F05AFFF5
:1026F800002623682671834205D104F10800BDE84D
:10270800F84000F099B8012794F82050206004F1AF
:102718001800BD40277100F0CFFD6DB2284394F832
:102728002150BD4084F8200004F11C0000F0C4FDD5
:1027380094F820306DB2666203F003032843022B3D
:10274800C0B284F8210009D000F003000228D4D1D7
:10275800002BD2D14FF0FF336362CEE78307CCD191
:102768006762CAE730B585B004469FED110A9DF847
:102778002050ADF80C100399ADF808202A46ADF8A2
:1027880004308DED000A0BF08FFC9DED000A2A46FF
:10279800029904F11C000BF087FC9DED000A2A4603
:1027A800019904F1380005B0BDE830400BF07CBC5D
:1027B80000007A4410B52DED028BF0EE608A0446D5
:1027C800B0EE418A0BF094FC04F11C00B0EE680AEC
:1027D8000BF08EFCB0EE480A04F13800BDEC028B19
:1027E800BDE810400BF084BC10B504460BF092FC19
:1027F80004F11C000BF08EFC04F13800BDE8104019
:102808000BF088BC70B5044682B0C1F30726CDB280
:10281800ADF8041001F0C6FE4FF480724FF00123AA
:102828002060A01DA571A280E671A36002B0BDE87A
:10283800704000F065BC00BF38B5044601F0B2FE38
:10284800002223682271834210D00122A57AE37AFC
:10285800954020602271A01D6DB243B900F02CFD97
:1028680040B22843C0B27F28A0720AD038BD00F019
:1028780023FDB0FA80F040092843C0B27F28A07237
:10288800F4D101F08FFE07EE900AF8EE677AC4EDF6
:10289800037A38BD00B583B04FF0000E4FF0030C3B
:1028A8004274ADF80410BDF8043080F810E0A0F8C8
:1028B80002C0038003B05DF804FB00BF2DE9F04FB0
:1028C800DFF81C8300258DB0C04C037008F140036D
:1028D8004260074601920E46202229464046C4F827
:1028E8006831C4F86481CDE90255CDE90455CDE9D4
:1028F8000655CDE90855CDE90A5510F08FFB202281
:10290800294604F5A170C4F83151C4F83551C4F80A
:102918003951C4F83D5110F081FB019B84F84852AD
:1029280084F830317A68002A6AD02B4604F5987109
:10293800454606F1100A9E46F01856F803B0E2180C
:102948000EF1010ED0F80CC0D0F80490D0F8088031
:1029580044F803B0C2F80CC04FF0000CC2F8049061
:10296800C2F80880008A25F802CB10821AF80320E2
:1029780001F8012F002A70D07A684FF00100123355
:10298800724584F84802D7D84FF4802290489DF8C1
:10299800043008214FF000084FF00009C4F88431D2
:1029A8000023C4E95B020122C4F8743184F8803141
:1029B800C4E95E2194F84812C4E96489A9B3C4F84B
:1029C8009821002284F8813184F888313B78C4E961
:1029D8006722002B38D0012200200121013B84F816
:1029E800A421C4E96C01082B30D8DFE813F0BD003E
:1029F800C200C700CC00D100D600DB00E100E8002F
:102A08009DF804300121C4F87421C4F884314FF4CE
:102A1800802384F880216E4AC4E95B2308230022BE
:102A2800C4E95E130023C4E964230123002284F867
:102A38008131002384F888310323C4F898313B7826
:102A4800C4E96722002BC6D184F8A431614802F09A
:102A58005FFE034638B1FFBEFEE77A68123372455F
:102A68003FF66AAF90E702A95A48029302F0B0FF16
:102A78008246002876D1042240F2FF710A90CDE9FF
:102A8800081294F83021002A00F0F3804FF006086D
:102A98000AEBCA034FEACA0904EB43035B7C072B22
:102AA80007D8DFE803F0595C5653504D4A04072312
:102AB80007930FFA8AF6D14406EBC60604EB4909D8
:102AC80004EB46077500384600F01AFB99F81030F9
:102AD800042B00F3AA80022B00F3BD8000F0B9801C
:102AE80004EB0A03002283F8202114F81630002B87
:102AF80078D0022B00F08A80012B40F0B2807B78DE
:102B0800012B00F0B080002B334B18BF002305A920
:102B18003048CDE9053802F0FBF9002840F0AC80D8
:102B28000AF1010A94F830315FFA8AFA534540F203
:102B3800A0802A4B53F82A80AAE706230793B8E710
:102B480005230793B5E704230793B2E70323079305
:102B5800AFE702230793ACE700230793A9E7012314
:102B68000793A6E7FFBEFEE703224023C4E96A23D2
:102B78006CE707226023C4E96A2367E70F228023F2
:102B8800C4E96A2362E71F22A023C4E96A235DE738
:102B98003F22C023C4E96A2358E77F22E023C4E91F
:102BA8006A2353E7FF224FF48073C4E96A234DE791
:102BB80040F2FF124FF49073C4E96A2346E740F2EB
:102BC800FF324FF4A073C4E96A233FE7887D0124EC
:102BD80000200240F47E01240002B025BC30010828
:102BE800004000307B78062B37D0072B3DD0022BD6
:102BF8004AD0032B4AD0002B4CD0012B48D0042BB1
:102C08004AD0052B254B18BF002380E77B78042B7F
:102C180025D0052B2BD08BB3012B31D0022B31D0F3
:102C2800032B1F4B18BF002371E70323043504EB64
:102C38000A0B4FF0000925448BF82031284609F18A
:102C4800010900F05DFA9BF8203104354B45F5DCAD
:102C58004BE70123EAE70223E8E7124B57E7124B59
:102C680055E7002353E7114B51E7114B4FE7114B41
:102C78004DE70DB0BDE8F08FFFBEFEE70E4B46E70F
:102C88000E4B44E70E4B42E70E4B40E70E4B3EE738
:102C98000E4B3CE70E4B3AE70E4B38E70000B84FB7
:102CA800002090360800900C1000C0102000F0148E
:102CB8008000501D000180210004002A0008302EE9
:102CC800001060320040C03A0080F03E00005247D9
:102CD800000021430000844B38B5094C40F2FF72D4
:102CE8004FF0011104F5B675284602F01FFE94F85E
:102CF8003021D4F864112846BDE8384002F07EBB84
:102D0800887D0124034B0F29D3F8640198BF00EB99
:102D180041007047887D0124214B02689A4200D007
:102D28007047204A00232048D2F8D81030B51F4CED
:102D380041F0200183B0C4F8D001092004F5E875FA
:102D4800C4E975034FF48060C2F8D810D2F8D820CF
:102D58004FF40061C4E9773094F8480202F0200289
:102D6800C4F8E4114FF40051984201922846C4F87F
:102D7800E811C4E97C33019B14BF00234FF480732E
:102D8800C4F8EC3103F050F808B1FFBEFEE704F5D3
:102D9800B673C4F8B851C4F8083203B030BD00BFE8
:102DA800002002400044025840000240887D01246F
:102DB800014803F081BE00BF587F012402682DE955
:102DC800F84F4B4B9A4201D0BDE8F88F494D95F822
:102DD8004832002BF8D095F83031002B77D00024FA
:102DE80005F10C0905F5A17605F59877A04613E0DD
:102DF80003F0010117F811BCA9F1080000F06AFA04
:102E0800BBF1010F25D895F83031013409F11209C9
:102E18000236A2B293422BD917F8012F002AF4D018
:102E2800D5F864310021327833F81400D5F86831C8
:102E380003EB041323F81200338801339BB2338069
:102E48005FFA83FA3A789A42D2D88A46A6F800807E
:102E5800D0E7CAF34001A9F1040000F03BFABBF146
:102E6800020FCAF38001CED0484600F033FACAE711
:102E7800002395F84802204909229842C5F8D8311C
:102E88004FF48060C5F8D011C5F8D4214FF4006123
:102E98004FF40052C5F8DC3108BF4FF48073C5F811
:102EA800E821C5E9780100221448C5E97B32C5F854
:102EB800F42102F0B9FF08B1FFBEFEE795F8302112
:102EC800D5F864110E48BDE8F84F02F097BA0A49E0
:102ED80009224FF48060C5F8D831C5E974124FF45F
:102EE80000614FF40052C5E97730C5E97912DAE795
:102EF80000200240887D012440000240587F0124C0
:102F0800F47E0124704700BF10B592B0ADF80410EC
:102F18000180C9B2149C0B29C460C0E901233FD0C9
:102F280090F801C0BCF10F0F3AD8022A3FD0032A0B
:102F380002D0012A00D000220E92012B02D0022BCF
:102F480018BF0023022C0F932CD0032C2AD0012C5D
:102F580028D000230A29109327D85C4A02EB812243
:102F680002610A2914D8DFE801F0A39587796B5D1F
:102F78004F4133250600564BD3F8E01041F48061E9
:102F8800C3F8E010D3F8E03003F480630C930C9B93
:102F980001230DA9104603FA0CF30D9304F0DEF893
:102FA80012B010BD0A291094D7D90022D8E71122EF
:102FB8000E92C2E7464BD3F8E01041F40071C3F813
:102FC800E010D3F8E03003F400730B930B9BDFE7BA
:102FD8003F4BD3F8E01041F48071C3F8E010D3F808
:102FE800E03003F480730A930A9BD1E7384BD3F897
:102FF800E01041F08001C3F8E010D3F8E03003F0AE
:1030080080030993099BC3E7314BD3F8E01041F0E3
:103018004001C3F8E010D3F8E03003F04003089310
:10302800089BB5E72A4BD3F8E01041F02001C3F81C
:10303800E010D3F8E03003F020030793079BA7E7DD
:10304800234BD3F8E01041F01001C3F8E010D3F897
:10305800E03003F010030693069B99E71C4BD3F866
:10306800E01041F00801C3F8E010D3F8E03003F0B5
:1030780008030593059B8BE7154BD3F8E01041F047
:103088000401C3F8E010D3F8E03003F0040304931C
:10309800049B7DE70E4BD3F8E01041F00201C3F822
:1030A800E010D3F8E03003F002030393039B6FE7CB
:1030B800074BD3F8E01041F00101C3F8E010D3F852
:1030C800E03003F001030293029B61E7000002581D
:1030D8000044025808B5012143780069994089B233
:1030E80004F03EFA003818BF012008BD01230A4643
:1030F8004178006903FA01F189B204F037BA00BFD8
:103108008378022B30B504468FB037D0032B33D0E9
:10311800012B31D000230A93E378012B2AD0022B0C
:1031280028D000230B93002320460C9301F06AFD5E
:103138000546204601F06EFD23780990082B13D828
:10314800DFE803F01F3245586B7E91A40500594B08
:10315800D3F8E02042F48072C3F8E020D3F8E030DE
:1031680003F480730893089B09A9284603F0F6FF27
:103178000FB030BD0B93D6E70A93CDE711230A931E
:10318800CAE74C4B09A92846D3F8E02042F00102CF
:10319800C3F8E020D3F8E03003F001030093009B6C
:1031A80003F0DCFF0FB030BD424B09A92846D3F825
:1031B800E02042F00202C3F8E020D3F8E03003F048
:1031C80002030193019B03F0C9FF0FB030BD394BD7
:1031D80009A92846D3F8E02042F00402C3F8E02009
:1031E800D3F8E03003F004030293029B03F0B6FF28
:1031F8000FB030BD2F4B09A92846D3F8E02042F084
:103208000802C3F8E020D3F8E03003F00803039382
:10321800039B03F0A3FF0FB030BD264B09A9284636
:10322800D3F8E02042F01002C3F8E020D3F8E030F1
:1032380003F010030493049B03F090FF0FB030BD1C
:103248001C4B09A92846D3F8E02042F02002C3F815
:10325800E020D3F8E03003F020030593059B03F04A
:103268007DFF0FB030BD134B09A92846D3F8E020E5
:1032780042F04002C3F8E020D3F8E03003F0400306
:103288000693069B03F06AFF0FB030BD094B09A9EE
:103298002846D3F8E02042F08002C3F8E020D3F8B3
:1032A800E03003F080030793079B03F057FF0FB04C
:1032B80030BD00BF0044025838B5054601F0A2FCF5
:1032C8000446284601F0A6FC01462046BDE83840E1
:1032D80004F046B970B506460D4601F093FC044665
:1032E800304601F097FC2A1E0146204618BF0122ED
:1032F800BDE8704004F03AB90023122270B586B0D8
:10330800CDE9022304930368032B01D80423059312
:10331800061D841D304601F075FC0546304601F057
:1033280079FC034601A92846019303F017FF2046BC
:1033380001F068FC034620461C4601F06BFC01A91D
:1033480003462046019303F009FF06B070BD00BF95
:10335800634A0368934210B58CB028D0614A9342FF
:1033680058D0614A934200F09480604A934201D059
:103378000CB010BD5E4C5F48D4F8E03043F0020357
:10338800C4F8E030D4F8E03003F002030A930A9B53
:10339800FFF7B2FFD4F8F43043F08003C4F8F430F8
:1033A800D4F8F43003F080030B930B9BE0E7504C08
:1033B8005148D4F8E03043F00203C4F8E030D4F8C0
:1033C800E03003F002030193019BFFF795FFD4F867
:1033D800E83000221F2043F400131146C4F8E830F7
:1033E800D4F8E83003F400130293029BD4F8D830E1
:1033F80043F00103C4F8D830D4F8D83003F00103FF
:103408000393039B02F05EFB1F200CB0BDE8104045
:1034180002F096BB364C3948D4F8E03043F08003CC
:10342800C4F8E030D4F8E03003F080030493049B40
:10343800D4F8E03043F00203C4F8E030D4F8E030C8
:1034480003F002030593059BFFF756FFD4F8E83015
:103458000022212043F480031146C4F8E830D4F850
:10346800E83003F480030693069BD4F8D83043F081
:103478000103C4F8D830D4F8D83003F00103079317
:10348800079B02F01FFB21200CB0BDE8104002F0A2
:1034980057BB1B48FFF730FF154B00224820D3F8D5
:1034A800E840114644F40004C3F8E840D3F8E84083
:1034B80004F400040894089CD3F8D84044F00104AC
:1034C800C3F8D840D3F8D83003F001030993099B17
:1034D80002F0F8FA48200CB0BDE8104002F030BB0A
:1034E8000054004000580040005C0040001C005898
:1034F8000044025878820124D87F0124B88001242E
:10350800988101242DE9F0431A4B87B000254FF02C
:1035180010099E46EC46184BFF22E04667461A7093
:103528000EF118060EF13004CDE90055CDE902552B
:10353800ADF80090BCE80F00CDE90455AEE80F00E7
:103548009CE803000095ADF800908EE80300B8E809
:103558000F000FC69CE803000095ADF8009086E8C0
:1035680003000FCF0FC49CE8030084E8030007B0F2
:10357800BDE8F08338000024D47F012410B5EFF3B0
:10358800108472B6084B1A78120602D504B962B6CE
:1035980010BD1878054B40B2C0EBC00003EB4010DB
:1035A800143003F089FAF1E7D47F0124D87F01248D
:1035B800014805F015B900BF64800124014805F0F1
:1035C8000FB900BF44810124014805F009B900BFC3
:1035D800248201242DE9F0470C6884B0414DC4EBE6
:1035E800C403032C4FEA431705EB4313036043DC82
:1035F800CB680E46012B3FD84FEAC4084ED0A8EB43
:103608000409B646DFF8FCA005EB4919BEE80F002F
:10361800CC46ACE80F00DEF800300DF1100ECCF807
:103628000030D9F808C09AE80F000EE90F000EEB39
:103638008403BCF1010F53F8103CC9F88C3032D028
:10364800BCF1020F43D0BCF1000F36D0327C8C376E
:10365800A8EB040400232F44520005EB4415012174
:103668003846C5F8AC30C5E92521C5E92733C5E991
:10367800293304F077FD18B1012004B0BDE8F087C4
:103688000146384605F0B8F80028F5D10146384615
:1036980005F0DCF8003818BF0120EEE70B7C103B82
:1036A800672BACD9E8E701F027F90F4B98420CBF1C
:1036B8000E4B0F4BC9F89030C8E701F01DF90A4BC3
:1036C80098420CBF0B4B0C4BC9F89030BEE701F089
:1036D80013F9054B98420CBF084B094BC9F89030B9
:1036E800B4E700BFD87F0124000E27072D0FB030A4
:1036F8003211D0205F4390608A62E030200BA01026
:103708001A098010443001082DE9F041D0F80080F2
:1037180082B00D4617461E4608F18C04204605F077
:1037280067F82028FAD1D8F80C3073B96D00204614
:10373800089C33463A46A9B2009404F069FD003863
:1037480018BF012002B0BDE8F081089B3246394617
:10375800204604F01BFFF2E7044B10221A7483F88A
:10376800F02083F8D02183F8B0227047D87F012455
:1037780030B5002395B04FF48071062204460B93B0
:1037880006921393CDE90C13CDE90E33CDE911332D
:1037980001F0B4F807282BD004F1100541F2883263
:1037A80006A9284606F090F828B10123184684F89F
:1037B8005C3015B030BD0222022306A92846CDE9A7
:1037C800002310220123CDE9022300224FF48003B5
:1037D800CDE9042305224FF0807306926A460F93C1
:1037E80041F2883306F0DCF90028DED115B030BD8F
:1037F8000323012084F85C3015B030BD00000000C0
:1038080070B50023A4B04FF080724FF48075044661
:10381800ADF806300D93CDE910320122CDE90E53F3
:10382800CDE91223CDE91433002943D0F02300F168
:10383800100508AEADF80630C02341F28832314693
:103848002846089306F040F828B10123184684F862
:103858005C3024B070BD41F288320DF10601284673
:1038680006F09CF803460028EFD105224FF480713A
:103878001E93284616924FF080721B9321931F9235
:1038880002AA9FED1F7BCDE91C13CDE922338DEDF4
:10389800027B9FED1D7B41F2883316A98DED047BD9
:1038A8009FED1B7B8DED067B06F07AF90028CCD1C5
:1038B80024B070BD00F1100508AE612341F28832D2
:1038C80031462846089305F0FFFF0028BDD141F294
:1038D80088320DF10601284606F0DEF80028B4D13A
:1038E800BDF80630204623F0780343F04003ADF8D6
:1038F8000630FFF73DFF00289ED0A6E7AFF3008013
:10390800000000000100000010000000010000009D
:1039180000000000000040002DE9F04F00234FF4A4
:10392800807501264FF0807804462DED028BABB0F0
:103938008DF8073013932193299314950E96CDF89B
:103948005C80CDE91533CDE91863CDE91A33CDE9AB
:103958002253CDE92433CDE9273306231C9300F005
:10396800CDFF072808D004F1100741F288321CA9BE
:10397800384605F0A9FF40B10123184684F85C30A9
:103988002BB0BDEC028BBDE8F08F4FF0020A4FF070
:10399800020B4FF0050941F2883308AA1CA93846E2
:1039A800CDF89480CDF870909FED2D8BCDE908ABC4
:1039B8004FF0000A4FF4800B8DED0A8BCDE90CAB6C
:1039C80006F0EEF80028D7D141F2883238460EA921
:1039D80005F07AFF0028CFD1402341F288320DF15B
:1039E800070138468DF8073005F0D8FF0028C3D105
:1039F80041F288330EA902AA3846CDF83890CDF89E
:103A08005C809FED197B8DED048BCDE906AB8DEDC8
:103A1800027B06F0C5F803460028ADD1CDF87090BA
:103A28004FF00109CDF894804FF00008219308AABF
:103A380029931CA938462295CDE92333CDE92733AC
:103A480041F288338DED0A8BCDE90CABCDE90889BD
:103A580006F0A6F8002893D0304684F85C608FE71B
:103A680010000000010000004000000040000000BD
:103A7800F0B55F4CA3B00D46046000F03FFF072887
:103A880044D028682346AA68696807C3AA891846E3
:103A980020F8042B257B667B05F004FF80BB554A84
:103AA800012DE06122614FF0010214BF4FF4801331
:103AB8004FF4000393FAA3F3C4E90522002B00F0A6
:103AC8008880B3FA83F3013B00224FF480774A4899
:103AD800C4E90837C4E90B2205F088FE80B96623DB
:103AE8000B90139041F2883206A90693CDE90C7029
:103AF800CDE90E00CDE911003F4805F0E5FE58B1CB
:103B08000123184684F85C3023B0F0BD032301205C
:103B180084F85C3023B0F0BD992341F2883206A9BD
:103B28003548069305F0D0FE0028E9D105231C90FE
:103B380019906A4614934FF08073219014A91D932D
:103B480041F288339FED247BCDE91A70CDE91F003F
:103B58008DED007B9FED227B27488DED027B9FED4D
:103B6800227B8DED047B06F01BF80028C8D129467E
:103B78001F48FFF745FE0028C2D11D48FFF7CCFEBD
:103B88000028BDD1002EBFD11890EB2300261A972C
:103B980014934FF44063002706AA1B934FF4404345
:103BA80014A91C930623CDE91F004FF080501993E8
:103BB80021904FF040701D904FF400501790A020B6
:103BC80016900D48CDE9066706F062F800289BD0EC
:103BD80096E71F2378E700BF0000000001000000FF
:103BE800100000000100000000000000000040007C
:103BF8005883012400500052688301242DE9F04FB6
:103C08008FB0414B0024026800AF9A427C63C7E939
:103C18000944C7E90B4403D03C37BD46BDE8F08FE3
:103C28003A4B40F609213A48EB46D3F8D42007F13D
:103C38001C0607F1220A4FF0020942F480424FF0B5
:103C48000308C3F8D420D3F8D42002F48042BA6021
:103C5800BA68D3F8E02042F04002C3F8E020D3F875
:103C6800E02002F04002FA60FA68D3F8E02042F05F
:103C78002002C3F8E020D3F8E02002F020023A61E5
:103C88003A69D3F8E02042F01002C3F8E020D3F8F4
:103C9800E02002F010027A617A69D3F8E02042F05D
:103CA8000202C3F8E020D3F8E030F86103F0020321
:103CB8003984BB61174B7B60BB697B6853F8040F81
:103CC8007B6000F09FFF7B680546186800F0A2FF44
:103CD80016F8013B786207F124012846C7F83080BE
:103CE8007B63C7E90A9403F039FA5645E5D1002207
:103CF8005C20114601F0E6FE5C2001F021FF3C3714
:103D0800DD46BD46BDE8F08F005000520044025821
:103D18000A0A0909B4830124114B02689A4200D0A7
:103D28007047104A70B5D2F8D4300F4C23F4804352
:103D380004F11806C2F8D43054F8040F00F062FFFA
:103D48000546206800F066FF0146284603F040FB60
:103D5800B442F1D15C20BDE8704001F0FFBE00BF65
:103D68000050005200440258B4830124014806F070
:103D78001BB800BF68830124084B1A1D981D03F166
:103D8800080110B49C1C9A6603F10A02C3E91834AE
:103D9800C3E91B015DF8044B5A6770475883012437
:103DA80038B5036871B9026A00F1280500F5AC74EA
:103DB800012A0CBF002140218BBB1D4B5722C0F8A4
:103DC80058310DE0426A00F1C00500F5E874012A97
:103DD8000CBF00214021EBB1164B5A22C0F8D0315C
:103DE80000232046C4E901214FF480524FF480613A
:103DF800636262614FF48042C4E903314FF4807317
:103E0800C4E906234FF40033236202F00DF858B1D9
:103E1800FFBEFEE7084B5822C0F8D031E0E7074B59
:103E28005922C0F85831DBE7C5E92044A56338BDFD
:103E38001000024070000240280002405800024072
:103E48002DE9F043821D05468BB0031D05F10A01DB
:103E58000830CDE9052305F10C02AB69CDE907016E
:103E68000992002B3DD0EB69B3FA83F84FEA581852
:103E78000123022205AE0AAF4FF006090393CDE9EC
:103E8800012356F8044B2B792278934216D02B68DD
:103E9800F3B1012B02D1F2B10A230493204600F0BA
:103EA800B9FE03462046009300F0ACFE694603F0D5
:103EB80055F9BE42E5D10BB0BDE8F0836979637866
:103EC8009942E4D1B8F1000FF3D02B68002BE0D170
:103ED800CDF81090E2E76378022B14BF0A23082379
:103EE800DBE74FF00108C3E7534A0368934230B554
:103EF80005468BB055D02032934252D04F4A934258
:103F080004D02032934201D00BB030BD4C4C4D4808
:103F1800D4F8E03043F00103C4F8E030D4F8E030DE
:103F280003F001030593059BD4F8E03043F0080340
:103F3800C4F8E030D4F8E03003F008030693069B99
:103F4800D4F8E03043F04003C4F8E030D4F8E0306F
:103F580003F040030793079BD4F8F03043F40003C1
:103F6800C4F8F030D4F8F03003F400030893089B49
:103F7800FFF766FFD4F8D830296843F001032F4AC9
:103F88003048C4F8D830891AD4F8D83018BF01217D
:103F980003F001030993099B0BB0BDE83040FFF71C
:103FA800FFBE274C2848D4F8E03043F00103C4F89A
:103FB800E030D4F8E03003F001030093009BD4F81C
:103FC800E03043F01003C4F8E030D4F8E03003F0F8
:103FD80010030193019BD4F8E03043F04003C4F888
:103FE800E030D4F8E03003F040030293029BD4F8A9
:103FF800F03043F48003C4F8F030D4F8F03003F420
:1040080080030393039BFFF71BFFD4F8D83029687C
:1040180043F00103084A0C48C4F8D830891AD4F888
:10402800D83018BF012103F001030493049B0BB09F
:10403800BDE83040FFF7B4BE04580140045C0140BD
:10404800004402582C860124D0830124014802F040
:1040580033BD00BF28850124014802F02DBD00BFF3
:10406800A0850124014802F027BD00BF84870124F0
:10407800014802F021BD00BFFC8701241A4A0368E9
:10408800934210B40BD02032934208D0174A93427F
:1040980016D02032934213D05DF8044B7047144B6E
:1040A8000022D3F85442C3F85822002CF4D0D3F895
:1040B8004802D3E9931223465DF8044B5208184787
:1040C8000B4B0022D3F8B044C3F8B424002CE3D03F
:1040D800D3F8AC24D3F8A814D3F8A4045208234680
:1040E8005DF8044B184700BF04580140045C0140C8
:1040F800D0830124184A0368934210B40BD02032AD
:10410800934208D0154A934217D02032934214D0D4
:104118005DF8044B7047124BD3E994245208C3F856
:104128005822002CF4D0D3E99201234601EB8201F6
:1041380000EB82005DF8044B1847094BD3F8AC2418
:10414800D3F8B0445208C3F8B424002CE0D0D3F814
:10415800A814D3F8A404E8E704580140045C01401B
:10416800D0830124000000002DE9F04F0C684FF4C3
:104178001776754F87B004FB06F6012C07EB060A85
:10418800C0F800A000F3A0800D468E464FF000084E
:10419800D44669A3D3E9002369A1D1E90001CDE997
:1041A800022306ABCAF8508203EB8403CDE904016D
:1041B80053F810BC53F8083CCAE992880193BEE84A
:1041C8000F00ACE80F00BEE80F00ACE80F00019B41
:1041D8009EE80300CAF828B0CAF8C0308CE803008B
:1041E8002B69042B0CD8DFE803F0737D879103005B
:1041F8004FF41773554A03FB04739A64C3F8E0201D
:10420800AA692B6A002A43D0002B4FF4177308BF02
:10421800022203FB047318BF0322DA6201221A6325
:10422800EA696B6A002A40D1191E4FF4177318BF48
:10423800012103FB0473C3E931126B69022B05D812
:10424800434A12F80380434A52F823904FF41773F5
:1042580006F128004246494603FB0474002338440B
:1042680063646363E365C4F8DC30C4F8CC30C4F835
:10427800F430C4E90F33C4E91533C4E93533C4E96C
:104288003B33022308F096F9002849D0FFBEFEE729
:10429800191E4FF4177318BF012103FB0473C3E9F8
:1042A8000B12EA696B6A002ABED0002B4FF4177311
:1042B80008BF022203FB047318BF0322C3F8C420FB
:1042C8000122C3F8C820B8E7012007B0BDE8F08F85
:1042D8004FF417734FF4FA5203FB04739A64C3F84C
:1042E800E0208DE74FF417734FF47A5203FB047301
:1042F8009A64C3F8E02083E74FF417734FF4FA4247
:1043080003FB04739A64C3F8E02079E74FF417734A
:104318004BF6803203FB04739A64C3F8E0206FE71E
:1043280006F1C000022342464946384408F042F9E3
:104338000028CAD0FFBEFEE704580140045C0140D3
:1043480024580140245C0140D083012400770100F7
:10435800FC300108003101080068704770B5046836
:1043680082B015460E46C4F85032C4E99212069A35
:10437800C4F85422A269012A26D0626A012A9AB294
:1043880011D0294604F1C000019208F0CDF9236A42
:10439800019A012B10D0294604F1280008F0C4F92D
:1043A800002002B070BD04F1C000019208F04EFA7E
:1043B800236A019A012BEED1314604F1280008F056
:1043C80045FA002002B070BD226A012A9AB211D0C3
:1043D800294604F12800019208F0A6F9636A019AB7
:1043E800012B10D0294604F1C00008F09DF90020E7
:1043F80002B070BD04F12800019208F027FA636A40
:10440800019A012BEED1314604F1C00008F01EFAE2
:10441800002002B070BD00BF03681B69042B05D8DB
:10442800044A02EB830393ED000A70479FED020AEA
:10443800704700BF0C31010800803B470368D3F880
:1044480058027047704700BF08B500F0EBFCBDE8A4
:10445800084001F0FFBB00BF064808B503680BB170
:1044680003F088F8044803681BB1BDE8084004F06D
:1044780019BA08BDA08D012490880124064808B502
:1044880003680BB103F076F8044803681BB1BDE874
:10449800084004F007BA08BDA08D012490880124C3
:1044A800064808B503680BB103F064F804480368CC
:1044B8001BB1BDE8084004F0F5B908BDA08D012482
:1044C80090880124364BDA6A520062D59A6A9A6A51
:1044D8009A6A9B6A180600D500BE314B9B6A9906FA
:1044E80000D500BE2E4B9B6ADA0600D500BE2C4BC9
:1044F8009B6A1B0700D500BE294B9B6A980700D50D
:1045080000BE274B9B6AD90700D500BE244B9B6A87
:104518001A0400D500BE224B9B6A9B0400D500BE3E
:104528001F4B9B6AD80400D500BE1D4B9B6A19051A
:1045380000D500BE1A4B9B6A5A0500D500BE184B21
:104548009B6A9B0500D500BE154B9B6AD80500D514
:1045580000BE134B9B6A990100D500BE104B9B6AA5
:10456800DA0100D500BE0E4B9B6A1B0300D500BEC6
:104578000B4B9B6A580300D500BE094B9B6A9903F5
:1045880000D500BE064B9B6ADA0306D400BE00BE07
:10459800FEE7DB6A9B07FAD5F8E700BEF6E700BF3F
:1045A80000ED00E000F04ABC00F04EBC0A4B9B68EE
:1045B80003F17843B3F5003F0BD3084B986848B133
:1045C8009868012806D09868022803D09B680320C1
:1045D80070470120704700BF00ED00E00000803800
:1045E8002DE9F041CEB004464C2200210AA80EF075
:1045F80015FD2022002102A80EF010FDC022002186
:104608001EA80EF00BFD022005F00AF82368012B06
:104618004FF0000354D0584A02250193C820D16AAC
:10462800564B21F00101D162D26A02F001020192D7
:104638009A6942F440429A619B6903F440430193AA
:10464800019B4E4A93699B04FCD54D4902240022E4
:1046580001268B6A04274FF0080823F0030323433D
:104668008B62052316900AA818934FF4803310968E
:10467800179419941597CDF86880CDE91B2221224B
:10468800CDE91344CDE90A2305F02EFD00B1FEE77C
:104698003F220323294602A8CDE90223002208234A
:1046A800CDE9042340224023CDE9062340234FF4DB
:1046B8008062CDE9082306F0B1F80346B8B1FEE7F9
:1046C8002E4A04250093F02091692B4B41F4404178
:1046D8009161926902F440420092DA6A42F0010262
:1046E800DA62DB6A03F001030093009BA9E720224A
:1046F80026932E9380212C924FF4805231930625D5
:104708003F931EA8279236924FF4803225914FF49A
:10471800401132924792002228958025409110211D
:10472800CDF888802B9720962A91CDE92F3440F236
:10473800271329934FF480632D930023CDE9234653
:10474800CDE93C234FF480740C2344940224219334
:1047580007A3D3E90023CDE93445CDE91E2306F0AC
:1047680049FB00B1FEE704F07FFF4EB0BDE8F081E1
:104778000F130F03000000000004005800480258FF
:104788000044025870B584B0012401F011FA4FF4C6
:1047980080764FF04052194B68460025ADF800402E
:1047A8000396CDE9012301F021FA19224FF0404385
:1047B80068468DF8082001938DF80F40ADF80D601C
:1047C8008DF801408DF80A5001F010FA02230B22EF
:1047D80068468DF80F508DF801304FF062538DF810
:1047E80008200193ADF80D408DF80A4001F0FEF95C
:1047F800042001F0EBF904B070BD00BF0E00010306
:1048080030B50D46044685B0D1E9000184E80300BF
:1048180000F0D8FAAB79002B63D00BF0FBFBFEF766
:1048280071FE0AF06BF80BF0F7F82B795BB3304C9C
:10483800636913F4803326D1C4F88430BFF34F8FF3
:10484800D4F8801043F6E07EC1F34E3CC1F3C901B1
:104858004FEA4C1C0CEA0E000B4640EA8372013BFF
:10486800C4F860225A1CF8D1ACF1200C1CF1200FBE
:10487800F0D1BFF34F8F636943F480336361BFF3B3
:104888004F8FBFF36F8F6B79B3B1194A536913F424
:10489800003311D1BFF34F8FBFF36F8FC2F850327F
:1048A800BFF34F8FBFF36F8F536943F400335361E6
:1048B800BFF34F8FBFF36F8F4FF0FF3200230024F9
:1048C800002569460B4802928DF80C30CDE9004569
:1048D8000AF034FC07480AF099FC09F03FFC05B0DF
:1048E80030BD2046FFF77CFE2046FFF74BFF94E7DC
:1048F80000ED00E08888012406F0F8B81C4B9B689E
:1049080003F17842B2F5003F25D3B3F5803F20D3B9
:1049180003F16042B2F5003F1FD303F15C42B2F5E8
:10492800002F1CD303F17042B2F5902F19D303F175
:104938004842B2F5803F16D303F18042B2F1806F4E
:1049480013D303F1E043B3F5000F2CBF0820072071
:1049580070470120704700207047022070470320ED
:10496800704704207047052070470620704700BF35
:1049780000ED00E003480023034A044903600DF0FA
:104988007BBE00BF88880124000000244D44000835
:1049980010B4204C0022204B83B0D4F888101F4854
:1049A80041F47001C4F8881019681D4C41F00101E8
:1049B80019601A61196808401A4918609A61DA6121
:1049C8001A629A62DA621A635A639A63DA631A6439
:1049D8005A64186820F4802018601A66D3F8DC201E
:1049E80042F06042C3F8DC20D3F8DC300193019B2D
:1049F80023681940B1F1005F03D20B4B0122C3F8C1
:104A08000821044B4FF000629A6003B05DF8044B34
:104A1800704700BF00ED00E0004402587FEDF6EA61
:104A28000010005C0000FFFF0080005100F2C4414C
:104A3800D0F8080508F09EBE01EBC10300EB830324
:104A4800D0F80805D3F8882208F0C4BE01EBC103EA
:104A580000EB8303D0F808059A6C08F0F5BE00BF98
:104A6800D0F8080508F09EBF016910B5044619B1D1
:104A7800022900D0FEE70121D4F8080508F072FFEA
:104A8800D4F80805BDE8104008F03EBF10B504464C
:104A9800D0F8080508F06AFF2268D2F8003E43F013
:104AA8000103C2F8003E236A23B1034A136943F0A5
:104AB8000603136110BD00BF00ED00E0D0F8080543
:104AC80008F064BFD0F8080508F092BFD0F80805D0
:104AD80008F078BFD0F8080508F0A0BFD0F808059E
:104AE80008F09EBF9446D0F8C8021A4608B5634637
:104AF80004F092FC032802D8024B185C08BD03207E
:104B080008BD00BF30310108D0F8C80208B504F06C
:104B180005FD032802D8024B185C08BD032008BD18
:104B280030310108D0F8C80208B504F03BFD03286D
:104B380002D8024B185C08BD032008BD30310108BB
:104B48000A06D0F8C83206D401EBC10103EB810193
:104B580091F87E02704701F07F0101EBC10103EB80
:104B6800810191F83E007047D0F8C80208B504F0FA
:104B78003DFC032802D8024B185C08BD032008BD81
:104B880030310108D0F8C80208B504F0A5FC0328A4
:104B980002D8024B185C08BD032008BD303101085B
:104BA800D0F8C80208B504F075FC032802D8024BF7
:104BB800185C08BD032008BD30310108D0F8000397
:104BC80009F02CBAD0F8000309F040BAD0F8000375
:104BD80009F048BA704700BFD0F8000309F02EBAB0
:104BE800D0F8000309F02EBAD0F8D40308B503F0C2
:104BF8003BF9032802D8024B185C08BD022008BD07
:104C080034310108024B027853F82200704700BF84
:104C180058310108024B427833F81200704700BF40
:104C2800383101088CB00A2814D8DFE800F01523C1
:104C3800313F4D5B6977859306004D4BD3F8E020F3
:104C480042F48062C3F8E020D3F8E03003F48063D4
:104C58000B930B9B0CB07047454BD3F8E02042F008
:104C68000102C3F8E020D3F8E03003F00103019318
:104C7800019BEFE73E4BD3F8E02042F00202C3F875
:104C8800E020D3F8E03003F002030293029BE1E74F
:104C9800374BD3F8E02042F00402C3F8E020D3F801
:104CA800E03003F004030393039BD3E7304BD3F8BE
:104CB800E02042F00802C3F8E020D3F8E03003F027
:104CC80008030493049BC5E7294BD3F8E02042F07E
:104CD8001002C3F8E020D3F8E03003F01003059386
:104CE800059BB7E7224BD3F8E02042F02002C3F837
:104CF800E020D3F8E03003F020030693069BA9E7F1
:104D08001B4BD3F8E02042F04002C3F8E020D3F870
:104D1800E03003F040030793079B9BE7144BD3F85D
:104D2800E02042F08002C3F8E020D3F8E03003F03E
:104D380080030893089B8DE70D4BD3F8E02042F4DD
:104D48008072C3F8E020D3F8E03003F4807309934D
:104D5800099B7FE7064BD3F8E02042F40072C3F8C2
:104D6800E020D3F8E03003F400730A930A9B71E75C
:104D780000440258704700BF0F4B1B780BB9012045
:104D8800704710B504464FF47A700C4AB0FBF3F341
:104D98001068B0FBF3F000F0F5FE0F2C00D808B156
:104DA800012010BD002221464FF0FF3000F08AFE9E
:104DB800034B00201C6010BD8800002480000024E4
:104DC8008C00002410B50320124C00F069FE05F099
:104DD80085FC114B11499A699B69C2F3032203F0C0
:104DE8000F038A5CCB5C02F01F020D4903F01F031E
:104DF800D04020FA03F308600E202360FFF7BCFFC1
:104E080010B10124204610BD0446FFF7B3FF204629
:104E180010BD00BF8400002400440258203101085E
:104E280080000024034A044B11681B780B4413606C
:104E3800704700BFA490012488000024014B186823
:104E4800704700BFA490012438B50446FFF7F6FF69
:104E58000546631C02D0044B1B781C44FFF7EEFF89
:104E6800431BA342FAD338BD88000024014B1868BD
:104E7800000C70470010005C704700BF806B08B5DD
:104E8800FFF7FAFF08BD00BF836B5A6D12F0500F91
:104E98005A6D10B51DD1196842F400725A650A6836
:104EA80012F0080FCA681BD012F4406F0DD1CA68FF
:104EB80094040AD45A6D22F480725A655A6DD1044A
:104EC80003D45A6D42F001025A651846FDF776FF81
:104ED80010BDD2060AD4DB6CBDE81040DB6C184765
:104EE8009007E7D01846FDF769FFF1E71846FEF787
:104EF80009F810BD806B08B5436D43F04003436566
:104F0800836D43F004038365FDF7FCFF08BD00BF14
:104F1800F0B5002283B0019290F85020012A00F0E9
:104F2800B880034601201A6883F850009468640723
:104F380008D55A6D42F020025A65002283F85020A5
:104F480003B0F0BD0C68002CC0F2A180C4F31305B7
:104F5800002D00F0978094FAA4F515B1B5FA85F5FF
:104F6800A840A40ED5692843D0614D681F2002F1DE
:104F7800300E04F01F04AE0905EA000C06F00C061A
:104F880000FA0CF704FA0CF456F80E0020EA0700B1
:104F9800044346F80E409068400776D4956815F0AB
:104FA800080555D10C6802F1140607208F684FEAEE
:104FB800D45CC4F304540CF0040C00FA04FE07FAA1
:104FC80004F4B64F5CF8060020EA0E0020434CF8C3
:104FD8000600386800F07040B0F1805F00F0E880AB
:104FE800D068D668C70600F1EB80C6F38206486928
:104FF800760000FA06F60F69042F7BD002F16004F0
:10500800086854F827C000F0F8400CF0004C40EA5B
:105018000C00304344F82700487E0E69012854F8F4
:1050280026000CBF4FF00047002720F0004038430F
:1050380044F826000C7E0869012C04D100F01F00FA
:105048004FF400658540106920F4F0400543156170
:105058009068C40714D4CE680C6806F01807904806
:10506800D2F8C050F840C4F31307204025EA0705DA
:105078002843C2F8C0008B48864257D0002C0BDB6F
:1050880000205AE7A40EA0406CE79068E0E7A40E61
:105098006BE7022003B0F0BD83498A4200F0B68076
:1050A80001F580718A4200F0B180804D8048A9687E
:1050B800806801F0E076C04300F00100002800F0AD
:1050C800B4807C48844200F0FD807B48844200F034
:1050D8001C817A488442D3D14902D1D474498A4286
:1050E800CED1AA68002022F0E072324342F4800256
:1050F800AA6022E7106E0C6800F0F840A506B0EB35
:10510800846F79D0506E00F0F84085426FD0906E71
:1051180000F0F840854274D0D06E00F0F840854227
:1051280096D1D06E20F00040D06691E7002F4ED087
:1051380094FAA4F5002D00F08C80B5FA85F00130C2
:1051480000F01F06092E40F28480B5FA85F5800626
:105158000126013500F0F84094FAA4F405F01F0583
:1051680006FA05F50543002C00F0DF80B4FA84F454
:10517800A0196FF01D0600F01F04032010FB046047
:10518800000540F000702843072402F11405C60DFD
:10519800C0F3045006F0040604FA00F7745924EA30
:1051A80007048F6807FA00F0204370510C6865E720
:1051B800D6684869C6F38206760000FA06F61AE74A
:1051C8007608486906F0080600FA06F613E7A40E02
:1051D800013404F01F06092E2DD8A506012005F07C
:1051E800F845B040054306EB46000005CBE7506E96
:1051F80020F0004050668AE7106E20F000401066EC
:1052080080E7906E20F00040906685E726482C4D98
:1052180000F58070A96850F8F86C8068304301F098
:10522800E076C04300F0010048E75A6D012042F0E3
:1052380020025A6581E606EB4600A50601241E38C1
:1052480005F0F84504FA06F60005354340F000700D
:1052580099E794FAA4F000286ED0B0FA80F00130F3
:10526800800600F0F84094FAA4F5002D62D0B5FA53
:1052780085F50126013505F01F0506FA05F50543F4
:1052880094FAA4F4002C52D0B4FA84F4013404F053
:105298001F0404EB4404200575E700BF0010005C00
:1052A800FFFF0F000000FF47002002400063025884
:1052B80000600258000084CB000052C70000B8CF3D
:1052C8000023024008023FF5DBAE1D498A427FF405
:1052D800D7AE1C4A1C481268A968920921F0E071EF
:1052E800A0FB02023143920941F400010132A96096
:1052F80052000192019A002A3FF4C2AE019A013A83
:105308000192019A002AF9D1BAE611F080707FF46F
:10531800B7AE0B498A427FF4B3AEAA6822F0E072B6
:10532800324342F08072AA6007E608482BE74FF440
:10533800401028E70225A2E74FF0806093E700BFFE
:105348000060025880000024632D3E05000050FED6
:1053580003689A68D10701D5002070479968214AE7
:10536800114270B504462CD199681F4A0A4042F090
:1053780001029A60FFF762FD23681C4A05469342C2
:1053880028D002F58072934224D0194A92681A688C
:10539800D60714D4144E9A68D00704D49A683240B9
:1053A80042F001029A60FFF749FD431B022B236874
:1053B80002D91A68D10704D51A68D207EBD500209C
:1053C80070BD636D012043F010036365A36D034353
:1053D800A36570BD074A9268D206D8D0064A9342A0
:1053E800D5D1ECE73F000080C0FFFF7F00200240DE
:1053F8000063025800230240002102402DE9F041D9
:105408003E4D044600680F461646A84219D03C4B4C
:10541800984216D03B4DAB688068420716D494F882
:105428005020012A12D003F01F080122B8F1090FF9
:1054380084F850200DD90023012084F85030BDE8AD
:10544800F081314DAB6880684207E8D50220BDE89D
:10545800F08140F2212323FA08F3DB4313EA020523
:10546800E9D12046FFF774FF002841D1626D274B30
:105478002168134043F480736365B8F1000F02D0CC
:105488001F4B994203D0636D23F480136365636DEA
:1054980013F4805330D0A36D23F00603A365E06CAA
:1054A80033461B4D3A46E66A4031C563194D0564DB
:1054B800194DC5641C2541F8405C002584F85050FE
:1054C80051F83C5C45F0100541F83C5C51F8345CFF
:1054D80025F00305354341F8345C00F013FF2268DA
:1054E8000E4B91680B4043F004039360BDE8F081D4
:1054F80084F85050BDE8F081A365D0E70020024051
:10550800002102400063025800230240FEF0FFFF22
:10551800914E0008854E0008FD4E0008C0FFFF7F31
:1055280038B503689A68950702D59B68002038BD8E
:105538009A68D40729D59A68044602F00D02012A10
:1055480008D0636D012043F010036365A36D034326
:10555800A36538BD986803210D4A024042F0020253
:105568009A601960FFF76AFC236805469B68D907AB
:105578000BD5FFF763FC401B2368022802D99A6801
:10558800D207DED49B68DB07F3D4002038BD00BF08
:10559800C0FFFF7F38B5574A04460368934226D0B8
:1055A80002F58072934222D0534B9B6813F4403F1C
:1055B80022D005F05BFA63680546B3F5003F00F0BA
:1055C8008880B3F5403F6CD0B3F5803F00F0818010
:1055D800FFF74CFC41F2030398424BD8474B9D42DE
:1055E8002AD92268936843F48073936038BD444B8A
:1055F8009B6813F4403FDCD14FF40020002106F0F3
:1056080049FC63680546B3F5101F6CD008D8B3F59C
:10561800E01F50D016D9B3F5001FD9D14509D7E7F7
:10562800B3F5201F45D0B3F5301FD1D1FFF71EFCCD
:1056380041F20303984240D82268936823F48073A8
:10564800936038BDB3F5801F06D00AD9B3F5A01F03
:1056580002D0B3F5C01FBBD19B0C5B00B5FBF3F5C3
:10566800B6E7B3F5002FF7D023F40022B2F5802F68
:10567800F2D0ADE7234B9D4205D82268936823F406
:105688004073936038BD204B9D421AD91F4B226846
:105698009D42936829D823F4407343F400739360C0
:1056A80038BD8508FFF7E2FB41F203039842E1D8D1
:1056B80094E7C5098CE705098AE7124BB3EB152F68
:1056C800DBD22268936823F4407343F480739360B9
:1056D80038BD1B0CB5FBF3F5FFF7C8FB41F203031C
:1056E8009842C7D87AE7850972E743F44073936014
:1056F80038BD00BF0020024000630258002D310170
:105708000023024021BCBE0041787D0181F0FA02ED
:1057180070B5002382B00193002800F0D180456D58
:105728000446002D00F0BB80226893689D0003D5D5
:105738009168724B0B4093609368D80016D4704BF5
:1057480070491B6890689B09A1FB03136E499B096C
:105758000140013341F0805191600193019B2BB1CD
:10576800019B013B0193019B002BF9D19368D90060
:1057780024D4636D012543F010036365A36D2B43A7
:10578800A365936813F0040F636D1DD1DB061BD46A
:10579800636D23F4817343F0020363659368DE0746
:1057A80028D45A4B9A4217D003F580739A4213D0E3
:1057B800574B9B68D9071DD4564A15E093680025B6
:1057C80013F0040F636DE1D0636D012543F01003FE
:1057D8002846636502B070BD4C4A4F4B92689B687F
:1057E8001343D80706D44D4A9368616823F47C13A1
:1057F8000B439360FFF73AFB41F20303A168984219
:10580800237F52D894F815C01A04206B42EA4C3210
:1058180002430A43012B03D1236A013B42EA434274
:10582800636A23B103F47873A16A0B431A432368AC
:105838003B49D86801400A43DA609A6812F0040FBD
:105848009A681CD112071AD4D868364A217D0240BA
:1058580042EA8132E16A0A43DA6094F83820012A80
:105868003AD01A6922F001021A611A692046616B5E
:1058780022F070420A431A61FFF78CFE2368E2683F
:10588800012A21D01A6B22F00F021A63636D284691
:1058980023F0030343F00103636502B070BDFDF715
:1058A8003BFAA56584F850503EE71029AAD1617DDE
:1058B8001A0442EA4132216B0A4342F01C02A9E76A
:1058C8000125284602B070BD196BA26921F00F01AD
:1058D800013A0A431A63D9E7D4E90F12666C013911
:1058E8001869324342EA0142A16C0A430E49014059
:1058F8000A4342F001021A61B7E700BFC0FFFF5F29
:1059080080000024632D3E05C0FFFF6F0020024089
:105918000060025800630258002102400023024040
:1059280003C0F0FFFCBFFFFF1EF800FCF0B500232A
:1059380083B0019390F85030012B40D001230446E6
:105948000E46154680F85030FFF7EAFDE8B9676D56
:1059580005F080421B4B06F480311B4D3B401B4F2A
:1059680043F00203636523689E68354015430D4381
:1059780045F000459D609A68002A0FDB636D23F0AF
:10598800030343F00103636503E0636D43F0100311
:105998006365002384F8503003B0F0BD019A0132EA
:1059A8000192019ABA42E6D3636D0022012023F0E6
:1059B800120384F8502043F010036365ECE70220DB
:1059C80003B0F0BDFDEEFFFFC0FFFE3F00F8C325AA
:1059D800F0B490F850209AB00E68012A4DD00346D2
:1059E8002B4C002201201D681692A54283F8500016
:1059F800179208D0596D83F8502041F0200159655D
:105A08001AB0F0BC7047234CA26852070BD5AA689D
:105A18005A6D012042F020025A65002283F8502076
:105A28001AB0F0BC7047A86810F00400F0D1C6B1F5
:105A3800DFF868C04F68DCF8082022F440423A4397
:105A4800CCF80820AD68A2682A43D40713D48A6822
:105A5800DCF808101643104A0A401643CCF80860D0
:105A6800DBE70E498A6822F440428A60A868A26887
:105A78000243D00705D50020CFE702201AB0F0BCBA
:105A880070478C683046044A22408A60C5E700BFE8
:105A98000020024000210240E0F0FFFF0023024006
:105AA80006494FF6FF0C0002054BCA6800F4E06097
:105AB80002EA0C0210430343CB60704700ED00E09C
:105AC8000000FA051B4BDB68C3F3022300B5C3F1E2
