:020000040800F2
:1000000000000220E1050008DD0500086930000855
:10001000DD050008DD050008DD0500080000000022
:10002000000000000000000000000000DD050008E6
:10003000DD05000800000000DD050008ED2F0008C8
:10004000DD050008DD050008DD050008DD05000808
:10005000DD050008DD050008DD050008DD050008F8
:10006000DD050008DD050008DD0500089D2D000800
:10007000A92D0008051B0008B52D0008C12D00089A
:100080003DE50008D1220008DD050008DD05000877
:10009000DD050008DD050008DD050008DD050008B8
:1000A000DD050008DD050008DD050008DD050008A8
:1000B00069D9000875D9000881D90008052300080E
:1000C000DD05000811230008DD050008D9D100086E
:1000D000E5D1000871E300089DE30008D1E30008C2
:1000E000DD050008DD05000800000000DD05000852
:1000F000DD050008DD050008DD050008DD05000858
:10010000DD050008DD0500088DD90008F1D10008E3
:1001100005E4000839E40008DD050008DD050008F5
:10012000DD050008DD05000815D2000849D20008E9
:1001300071E50008DD050008DD050008DD050008A3
:1001400000000000000000000000000000000000AF
:10015000DD050008DD050008DD0500086DE4000888
:100160001D230008DD050008FD2F000821300008D0
:10017000DD05000845300008DD050008DD05000844
:10018000DD050008DD050008A1E40008D5E400084D
:10019000FDD1000809D20008DD050008DD050008D2
:1001A000DD050008DD050008DD050008DD050008A7
:1001B000BD2A0008DD050008DD050008DD05000892
:1001C000DD050008DD050008DD050008DD05000887
:1001D000DD050008DD050008DD050008DD05000877
:1001E000DD050008DD050008DD050008DD05000867
:1001F000DD050008DD050008DD050008DD05000857
:10020000DD050008DD050008DD050008DD05000846
:10021000DD050008DD050008DD050008DD05000836
:10022000DD050008DD050008DD0500080000000010
:10023000DD050008DD05000800000000DD05000800
:10024000DD050008DD050008DD050008DD05000806
:10025000DD050008DD050008DD050008DD050008F6
:10026000DD050008DD050008DD050008DD050008E6
:10027000DD050008DD05000809E5000800000000B4
:10028000DD050008DD050008DD05000800000000B0
:0802900000000000DD0500087C
:1002980010B5054C237833B9044B13B10448AFF3B8
:1002A80000800123237010BD80030024000000009B
:1002B8001C0E010808B5034B1BB103490348AFF3F3
:1002C800008008BD00000000840300241C0E010803
:1002D80053B94AB9002908BF00281CBF4FF0FF31A5
:1002E8004FF0FF3000F074B9ADF1080C6DE904CEA1
:1002F80000F006F8DDF804E0DDE9022304B07047F9
:100308002DE9F047089D04468E46002B4DD18A42C0
:10031800944669D9B2FA82F252B101FA02F3C2F1F3
:10032800200120FA01F10CFA02FC41EA030E944084
:100338004FEA1C48210CBEFBF8F61FFA8CF708FBA5
:1003480016E341EA034306FB07F199420AD91CEB7D
:10035800030306F1FF3080F01F81994240F21C81AF
:10036800023E63445B1AA4B2B3FBF8F008FB1033F7
:1003780044EA034400FB07F7A7420AD91CEB04042C
:1003880000F1FF3380F00A81A74240F207816444FC
:10039800023840EA0640E41B00261DB1D440002381
:1003A800C5E900433146BDE8F0878B4209D9002DE5
:1003B80000F0EF800026C5E9000130463146BDE86F
:1003C800F087B3FA83F6002E4AD18B4202D38242D9
:1003D80000F2F980841A61EB030301209E46002D88
:1003E800E0D0C5E9004EDDE702B9FFDEB2FA82F2DD
:1003F800002A40F09280A1EB0C014FEA1C471FFA3B
:100408008CFE0126200CB1FBF7F307FB131140EA21
:1004180001410EFB03F0884208D91CEB010103F1EE
:10042800FF3802D2884200F2CB804346091AA4B2B0
:10043800B1FBF7F007FB101144EA01440EFB00FE84
:10044800A64508D91CEB040400F1FF3102D2A645E9
:1004580000F2BB800846A4EB0E0440EA03409CE788
:10046800C6F12007B34022FA07FC4CEA030C20FA35
:1004780007F401FA06F31C43F9404FEA1C4900FA55
:1004880006F3B1FBF9F8200C1FFA8CFE09FB1811D2
:1004980040EA014108FB0EF0884202FA06F20BD945
:1004A8001CEB010108F1FF3A80F08880884240F295
:1004B8008580A8F102086144091AA4B2B1FBF9F0D9
:1004C80009FB101144EA014100FB0EFE8E4508D9D4
:1004D8001CEB010100F1FF346CD28E456AD9023859
:1004E800614440EA0840A0FB0294A1EB0E01A1423E
:1004F800C846A64656D353D05DB1B3EB080261EBAC
:100508000E0101FA07F722FA06F3F1401F43C5E985
:10051800007100263146BDE8F087C2F12003D840BB
:100528000CFA02FC21FA03F3914001434FEA1C47FD
:100538001FFA8CFEB3FBF7F007FB10360B0C43EAEF
:10054800064300FB0EF69E4204FA02F408D91CEB9F
:10055800030300F1FF382FD29E422DD9023863449D
:100568009B1B89B2B3FBF7F607FB163341EA03413D
:1005780006FB0EF38B4208D91CEB010106F1FF388C
:1005880016D28B4214D9023E6144C91A46EA004683
:1005980038E72E46284605E70646E3E61846F8E615
:1005A8004B45A9D2B9EB020864EB0C0E0138A3E75E
:1005B8004646EAE7204694E74046D1E7D0467BE73F
:1005C800023B614432E7304609E76444023842E7B7
:1005D800704700BFFEE700BF0B480C4A904203D0AB
:1005E800121A0B4910F0EAFA0A480B4A904203D053
:1005F800121A002110F0F0FA02F09AFF10F0BAFA7D
:1006080000F042F8FEE700BF000000247C0300244D
:100618004C0E0108800300241C340024704700BFDE
:1006280010B5184C2DED048B204600F07FF82046BD
:1006380000F09AF82046002100F08CF820460121AD
:10064800B0EE408A00F086F820460221F0EE408A9B
:1006580000F080F8B0EE409A2046032100F07AF8C6
:1006680004F5907029EE001A68EE800A28EE000A58
:1006780000F046FF2046BDEC048BBDE8104000F0BA
:1006880083B800BF9C03002408B50021084800F087
:1006980013F93021064800F01DF80548032100F041
:1006A8002DF8034800F03EF8FFF7BAFFFCE700BF5B
:1006B8009C03002404480023044A0549036043615D
:1006C8000362C36310F042BA9C03002400000024B4
:1006D80025060008F8B5054600F07EF905F1E8049E
:1006E80005F1F80754F8046B284600F091F93046F4
:1006F80000F044FEBC42F5D1F8BD00BFF8B5054690
:1007080000F04EF905F1E80405F1F80754F8046B18
:10071800284600F07DF9304600F030FEBC42F5D1A5
:10072800F8BD00BF183001F07DB900BF10B5044610
:10073800683000F0FFFD04F1880000F0FBFD04F1D3
:10074800A80000F0F7FD04F1C800BDE8104000F073
:10075800F1BD00BF042928BF00213A3150F82130EB
:1007680093ED030A704700BF10B50446403000F00F
:1007780061FE04F1F80000F005FF04F58470BDE89F
:10078800104000F0FFBE00BF00F5907000F0D2BE30
:1007980010B5044686B01C2000F0ECF8034617207C
:1007A80004F59074ADF80C3000F0E4F80346162018
:1007B800ADF8103000F0DEF80023ADF81400204644
:1007C8000093059BDDE9031200F072FE9FED071A06
:1007D8002046F0EE410AB0EE410A00F091FE2046B4
:1007E80006B0BDE8104000F0A5BE00BF0000000044
:1007F8002DE9F04198B005461020002400F0BAF821
:10080800ADF808000222029906A805F1180800F0C0
:10081800E7FE112000F0AEF8ADF80C0002220399B3
:100828000DF12A0005F1680600F0DAFE122000F04A
:10083800A1F8ADF81000022204990FA805F1EC0701
:1008480000F0CEFE132000F095F8ADF81400022257
:1008580005990DF14E0000F0C3FE042306A9404699
:100868001A4600F0D1FE05F1A80305F18802C5F883
:10087800F03005F1C803C5E93A62C5F8F430E1B2D1
:10088800404601F0E5F8014628460134019100F0A0
:10089800BFF800233046DFED070A01991A4600F039
:1008A80017FD042C02D057F8046BE8E718B0BDE830
:1008B800F08100BF6F12033BF0B5044689B0019187
:1008C80000F056F80199204600F05EF91B2000F070
:1008D80051F8034604F1F8079FED240AADF81830E3
:1008E80004F584750699384600F032FE182000F0A9
:1008F80041F803469FED1D0A2846ADF81C300799BC
:1009080000F026FE1A20C4E9467500F033F80346C5
:10091800192004F1E805ADF80C3000F02BF8034677
:100928000E20ADF8103000F025F8ADF8140004F1F1
:1009380040009FED0E0A059BDDE9031200F04AFD19
:100948002046FFF725FF2046FFF752FF30212046BB
:1009580000F042F855F8046B204600F059F830468C
:1009680000F00CFDBD42F5D109B0F0BD000000005B
:10097800704700BF202882B009D8084B03EB40021B
:1009880013F81030507843EA002002B07047012372
:100998000C2043EA002002B0704700BF340C010865
:1009A80038B500F1140504462DED028B284600F0F9
:1009B80039FC284600F032FC2846B0EE408A00F0A8
:1009C8001BFCD0ED007AF8EE677A88EE277ABDEC4A
:1009D800028B84ED0E7A38BD38B500F11405044653
:1009E8002DED028B284600F00BFC284600F016FC83
:1009F8002846B0EE408A00F0FFFBD0ED007AF8EE12
:100A0800677A88EE277ABDEC028B84ED0E7A38BDC2
:100A180090ED0E0A704700BF10B540F203338EB058
:100A280000244FF60B7240F20341ADF8083009A8D4
:100A38000123ADF81020ADF824202246ADF80C10A3
:100A48000094029907940C94CDE90544CDE90A4431
:100A580001F000F904A8012322460399009401F04B
:100A6800F9F809A801F0DCF910B901200EB010BDA1
:100A780004A801F0D5F9A0420CBF022020460EB010
:100A880010BD00BF2DE9F04103239AB04FF00108D3
:100A980000250746CDE91438374BCDE9105340F20D
:100AA8000453CDE91658ADF84830FFF7B5FF404577
:100AB800064621D0022840D040F601322F4B0BAC1D
:100AC8001895ADF82C200B98CDF86480CDF84A30F5
:100AD80000F0DEF810A907F13C0002F075F9284B88
:100AE8000FCB84E80F00FA6B214607F1140000F0E1
:100AF8004BFB1AB0BDE8F0811023204A06A90690E6
:100B08008DF828300BAC1F4BCDF84A20079302957F
:100B1800CDE91805CDE9080502A801F001FC082374
:100B2800029A03A92046ADF80C608DF80E50049681
:100B380005930B9500F0ECF8CCE7002001210F4B52
:100B48000BAC42460095CDF84A304FF60B730C9526
:100B5800ADF82C302B46CDE9180140F6013120467E
:100B6800ADF818100699CDE90D5501F073F829462E
:100B7800204601F061F9ADE7040204040406040309
:100B8800F00B01080704010B2DE9F04704462DED91
:100B9800028B82B000294DD0012140F201120023BE
:100BA8000091ADF804208DF80630364A0127364BFF
:100BB80004F10409354904F12908626040F202721F
:100BC800A36040F60663E16004F1250AA4F8252035
:100BD800A4F82930278284F8277084F82B7002F053
:100BE8005DFC054602F0B0FA6946064650BB4DB3B7
:100BF80004F130008DF8067002F0D2FB072D3CD1CD
:100C080004F114052046FFF73DFF284600F006FBD7
:100C18002846B0EE408A00F0EFFAD0ED007AF8EE00
:100C2800677A88EE277A84ED0E7A02B0BDEC028BE3
:100C3800BDE8F08740F2011300918DF80610ADF879
:100C48000430B2E704F1300002F0AAFB072D11D0FE
:100C58004946204601F0B0FD0EB9002DD0D15046CE
:100C680001F0F4F8404601F0F1F804F1120000F048
:100C780079F9C5E7002EF2D1C2E74946204601F0CE
:100C88009BFDBDE70508050905070506050A0606D3
:100C980010B584B003460124ADF8040003A8ADF8EC
:100CA8000C30ADF80E4001F0D1F8214603A801F050
:100CB800B7F9204602F046FA002103A801F0B0F97E
:100CC800204602F03FFA214603A801F0A9F904B032
:100CD80010BD00BF10B5C2F3002384B00C46017CE0
:100CE8008DF80D2043EA4402FA2402238DF80C20E3
:100CF80003AA009401F0AEFB18B10124204604B009
:100D080010BD04460A2002F01DFA204604B010BDAA
:100D1800034670B543F8042B044684B007C983E83A
:100D28000700A37983B91A210B461E22FA252374DA
:100D38002046ADF80C20022303AA009501F08AFB97
:100D480028B1012004B070BD1B210B46EDE70A2035
:100D580002F0F8F94FF4B85200950223ADF80C20D0
:100D6800204603AA217C01F075FB0028E9D10A205E
:100D780002F0E8F941F2027200950223ADF80C2066
:100D8800204603AA217C01F065FB0028D9D10A205E
:100D980002F0D8F9042200950223ADF80C20204671
:100DA80003AA217C01F056FB0028CAD10A2002F0D0
:100DB800C9F9062200950223ADF80C20204603AAA3
:100DC800217C01F047FB0028BBD10A2002F0BAF9C8
:100DD80041F2082200950223ADF80C20204603AA10
:100DE800217C01F037FB0028ABD10A20064602F02F
:100DF800A9F90095022303AA217C2046ADF80C60CE
:100E080001F028FB00289CD1304602F09BF90095A0
:100E180022790C232046002A8DF80C3003AA4FF0C3
:100E2800020314BF622142218DF80D10217C01F0CC
:100E380011FB002885D1304602F084F92279D4E9E3
:100E480002310B43DBB20AB943F0400362790AB1BD
:100E580043F020030E22FA258DF80D302046009528
:100E680002238DF80C2003AA217C01F0F3FA002854
:100E78007FF467AF0A2002F065F91022009502237B
:100E8800ADF80C20204603AA217C01F0E3FA0028E3
:100E98007FF457AF0A2002F055F91221009502237A
:100EA800ADF80C1003AA217C204601F0D3FA0028E3
:100EB8007FF447AF0A2002F045F9012209212046B4
:100EC800FFF708FF003818BF01203BE7F0B51023F3
:100ED80087B0234C012200250126002702A92046BD
:100EE8000195CDE902234FF48052CDE904670AF059
:100EF80015FA642002F078FD02A94FF480522046CA
:100F0800CDE9046702261027CDE902670AF006FA40
:100F18000322102302A92046CDE90223002304223C
:100F2800CDE904234FF480520AF0F8F940F2322355
:100F3800042202A9019310232046CDE90223019A35
:100F4800012305924FF4805204930AF0E7F940F622
:100F5800060120460AF002FA284607B0F0BD00BF95
:100F6800180500241C4B00221C494FF0400C30B5DA
:100F7800054689B00220596007219A601A62012447
:100F8800DA620A224FF4006EDC6006922022CDE974
:100F9800000104200821CDE9020103201021CDE938
:100FA800040108206946C3E904024FF4C072181D01
:100FB800C3E906C24FF48052C3E909E20AF084F992
:100FC80038B92846FFF782FF003818BF012009B05A
:100FD80030BD204609B030BD140500244041005200
:100FE800614A0021D0B513688EB00A91002B40F0F9
:100FF800B9805E4B01214FF683700C2411600221E9
:10100800D3F8D4200026032742F48052C3F8D42012
:10101800D3F8D42002F480520092009AD3F8E0204A
:1010280042F01002C3F8E020D3F8E02002F01002EA
:101038000192019AD3F8E02042F04002C3F8E02080
:10104800D3F8E02002F040020292029AD3F8E0209E
:1010580042F00802C3F8E020D3F8E02002F00802CA
:101068000392039AD3F8E02042F48072C3F8E02098
:10107800D3F8E02002F480720492049AD3F8E020B6
:1010880042F08002C3F8E020D3F8E02002F08002AA
:101098000592059AD3F8E02042F02002C3F8E02038
:1010A800D3F8E02002F020020692069AD3F8E02056
:1010B80042F00402C3F8E020D3F8E0300C9403F0C7
:1010C800040307930323079A0B93CDE9080108A9A2
:1010D800274804F013FE48F23712022308A92548CE
:1010E8000C94CDE90823CDE90A6704F007FE4CF219
:1010F8000372022308A920480C94CDE90823CDE9FE
:101108000A6704F0FBFD40F2FF62022308A91B48AE
:101118000C94CDE90823CDE90A6704F0EFFD4FF6FA
:101128000C72022308A916480C94CDE90823CDE9CE
:101138000A6704F0E3FD4FF63F02022308A91148AD
:101148000C94CDE90823CDE90A6704F0D7FD2022E5
:10115800022308A90A480C94CDE90A67CDE90823B7
:1011680004F0CCFD0EB0D0BD100500240044025898
:101178000010025800180258000C025800200258AB
:10118800001C02580014025830B5184C154685B09A
:10119800046004F1080EEC460FC98EE80F00D4ED88
:1011A800047AF5EEC07A8CE80F00F1EE10FA1ADD39
:1011B800B7EE006A94ED057A27EE277AC6EE276A1D
:1011C80084ED0D7AC4ED0C6A6DB1204640F8185FC5
:1011D80001F0F2FE064903690020064A2162A26274
:1011E800E36005B030BD012005B030BD4C050024DA
:1011F800002000300000003000680830704700BF51
:10120800B1F5807F03680A4628BF4FF48072B1F5B4
:10121800807F9A6094BF00200120704700681830D2
:1012280001F0CCBE70B504688AB0A369E160CBB1A7
:1012380004F11805284601F0BFFE8446EE46E6682C
:10124800BCE80F00AEE80F00BCE80F00AEE80F00E6
:101258009CE803008EE8030069462846049601F0DE
:10126800B3FDF8B9E069D8B104F11C05284601F0CE
:10127800A3FE8446EE46E468BCE80F00AEE80F0023
:10128800BCE80F00AEE80F009CE803008EE80300FE
:1012980069462846049401F097FD003818BF0120DC
:1012A8000AB070BD01200AB070BD00BF10B4074B72
:1012B8004FF07E5130240022032019619C60D860D1
:1012C8005DF8044B5961C3E9062270474C050024B8
:1012D800F6EE007A9FED166A20EE207A0160F7EEAE
:1012E800006A80ED036A80ED020A27EE277AC6EECF
:1012F800877AF4EEE67AF1EE10FA11DDF0EE667A0E
:101308004FF07E514FF0000C02760022C0ED017ABA
:10131800C0F814C0016143768276C0ED070A7047B1
:10132800F4EEC67AF1EE10FAEAD5F0EE467AE7E77F
:10133800000000000268037E128807EE902AFBEE88
:10134800C87A1BB1B7EE007A77EE677AD0ED056AF6
:1013580090ED047A77EEE67A437E67EE877A0BB1F2
:10136800F1EE677A90ED030A90ED017A77EEC07A94
:10137800A7EE270A80ED030A704700BF837E80ED41
:10138800020AABB9D0ED077A27EE800AF6EE007AAA
:10139800B7EE007A20EE270AC7EE007AF4EEC77A95
:1013A800F1EE10FA07DDF0EE477AC0ED017A7047EA
:1013B800DFED067AE8E7F5EEC07AF1EE10FAF4D53B
:1013C800DFED037AC0ED017A704700BF6F12033B6F
:1013D8000000000030B585B004460025ADF80C10BB
:1013E800ADF80820ADF8043001F0AAFEBDF80C20D5
:1013F8004FF48073206004F118002283BDF80820A0
:101408006383E383A283257100F020FD04F11C00AF
:1014180000F01CFD9FED060A019904F1080000F098
:1014280097F84FF6FF736562238405B030BD00BF9F
:1014380000000000F8B5044601F082FE002623688B
:101448002671834205D104F10800BDE8F84000F098
:1014580099B8012794F82050206004F11800BD4085
:10146800277100F0CFFD6DB2284394F82150BD409C
:1014780084F8200004F11C0000F0C4FD94F820302A
:101488006DB2666203F003032843022BC0B284F8EE
:10149800210009D000F003000228D4D1002BD2D1BA
:1014A8004FF0FF336362CEE78307CCD16762CAE7A8
:1014B80030B585B004469FED110A9DF82050ADF86F
:1014C8000C100399ADF808202A46ADF804308DEDCC
:1014D800000A0BF013FA9DED000A2A46029904F15E
:1014E8001C000BF00BFA9DED000A2A46019904F145
:1014F800380005B0BDE830400BF000BA00007A446F
:1015080010B52DED028BF0EE608A0446B0EE418AEC
:101518000BF018FA04F11C00B0EE680A0BF012FA8E
:10152800B0EE480A04F13800BDEC028BBDE810406B
:101538000BF008BA10B504460BF016FA04F11C00BB
:101548000BF012FA04F13800BDE810400BF00CBAA9
:1015580070B5044682B0C1F30726CDB2ADF80410C9
:1015680001F0EEFD4FF480724FF001232060A01DC2
:10157800A571A280E671A36002B0BDE8704000F0DA
:1015880065BC00BF38B5044601F0DAFD00222368C7
:101598002271834210D00122A57AE37A9540206017
:1015A8002271A01D6DB243B900F02CFD40B2284352
:1015B800C0B27F28A0720AD038BD00F023FDB0FA6F
:1015C80080F040092843C0B27F28A072F4D101F00E
:1015D800B7FD07EE900AF8EE677AC4ED037A38BDD6
:1015E80000B583B04FF0000E4FF0030C4274ADF815
:1015F8000410BDF8043080F810E0A0F802C00380A1
:1016080003B05DF804FB00BF2DE9F04FDFF81C8341
:1016180000258DB0C04C037008F1400342600746B6
:1016280001920E46202229464046C4F86831C4F883
:101638006481CDE90255CDE90455CDE90655CDE9DA
:101648000855CDE90A550FF0C7FA2022294604F5B6
:10165800A170C4F83151C4F83551C4F83951C4F8EF
:101668003D510FF0B9FA019B84F8485284F83031A3
:101678007A68002A6AD02B4604F59871454606F127
:10168800100A9E46F01856F803B0E2180EF1010E43
:10169800D0F80CC0D0F80490D0F8088044F803B013
:1016A800C2F80CC04FF0000CC2F80490C2F80880D1
:1016B800008A25F802CB10821AF8032001F8012FBE
:1016C800002A70D07A684FF001001233724584F80E
:1016D8004802D7D84FF4802290489DF8043008215A
:1016E8004FF000084FF00009C4F884310023C4E922
:1016F8005B020122C4F8743184F88031C4E95E21A8
:1017080094F84812C4E96489A9B3C4F8982100225E
:1017180084F8813184F888313B78C4E96722002B4A
:1017280038D0012200200121013B84F8A421C4E91A
:101738006C01082B30D8DFE813F0BD00C200C700E9
:10174800CC00D100D600DB00E100E8009DF80430B1
:101758000121C4F87421C4F884314FF4802384F83B
:1017680080216E4AC4E95B2308230022C4E95E1382
:101778000023C4E964230123002284F88131002373
:1017880084F888310323C4F898313B78C4E9672288
:10179800002BC6D184F8A431614802F089FD0346C4
:1017A80038B1FFBEFEE77A68123372453FF66AAF7A
:1017B80090E702A95A48029302F0DAFE824600280E
:1017C80076D1042240F2FF710A90CDE9081294F80C
:1017D8003021002A00F0F3804FF006080AEBCA0314
:1017E8004FEACA0904EB43035B7C072B07D8DFE801
:1017F80003F0595C5653504D4A04072307930FFAD8
:101808008AF6D14406EBC60604EB490904EB460701
:101818007500384600F01AFB99F81030042B00F3D5
:10182800AA80022B00F3BD8000F0B98004EB0A0304
:10183800002283F8202114F81630002B78D0022BD0
:1018480000F08A80012B40F0B2807B78012B00F0F9
:10185800B080002B334B18BF002305A93048CDE9D1
:10186800053802F025F9002840F0AC800AF1010A99
:1018780094F830315FFA8AFA534540F2A0802A4B37
:1018880053F82A80AAE706230793B8E705230793A6
:10189800B5E704230793B2E703230793AFE70223CF
:1018A8000793ACE700230793A9E701230793A6E76B
:1018B800FFBEFEE703224023C4E96A236CE7072240
:1018C8006023C4E96A2367E70F228023C4E96A23F7
:1018D80062E71F22A023C4E96A235DE73F22C023F1
:1018E800C4E96A2358E77F22E023C4E96A2353E75F
:1018F800FF224FF48073C4E96A234DE740F2FF12D8
:101908004FF49073C4E96A2346E740F2FF324FF47C
:10191800A073C4E96A233FE7880500240020024039
:10192800F40600240002B025780C010800400030BD
:101938007B78062B37D0072B3DD0022B4AD0032BC0
:101948004AD0002B4CD0012B48D0042B4AD0052B71
:10195800254B18BF002380E77B78042B25D0052B67
:101968002BD08BB3012B31D0022B31D0032B1F4B43
:1019780018BF002371E70323043504EB0A0B4FF06B
:10198800000925448BF82031284609F1010900F0A7
:101998005DFA9BF8203104354B45F5DC4BE7012314
:1019A800EAE70223E8E7124B57E7124B55E7002313
:1019B80053E7114B51E7114B4FE7114B4DE70DB072
:1019C800BDE8F08FFFBEFEE70E4B46E70E4B44E73F
:1019D8000E4B42E70E4B40E70E4B3EE70E4B3CE703
:1019E8000E4B3AE70E4B38E70000B84F0020903610
:1019F8000800900C1000C0102000F0148000501D4A
:101A0800000180210004002A0008302E00106032F6
:101A18000040C03A0080F03E0000524700002143D9
:101A28000000844B38B5094C40F2FF724FF00111A9
:101A380004F5B675284602F049FD94F83021D4F82B
:101A480064112846BDE8384002F0A8BA8805002489
:101A5800034B0F29D3F8640198BF00EB410070478E
:101A680088050024214B02689A4200D07047204A1A
:101A780000232048D2F8D81030B51F4C41F020017F
:101A880083B0C4F8D001092004F5E875C4E97503EA
:101A98004FF48060C2F8D810D2F8D8204FF4006113
:101AA800C4E9773094F8480202F02002C4F8E4113F
:101AB8004FF40051984201922846C4F8E811C4E94D
:101AC8007C33019B14BF00234FF48073C4F8EC31BE
:101AD80002F07AFF08B1FFBEFEE704F5B673C4F85A
:101AE800B851C4F8083203B030BD00BF002002402E
:101AF800004402584000024088050024014803F0D1
:101B0800ABBD00BF5807002402682DE9F84F4B4BC6
:101B18009A4201D0BDE8F88F494D95F84832002B1C
:101B2800F8D095F83031002B77D0002405F10C0956
:101B380005F5A17605F59877A04613E003F00101B5
:101B480017F811BCA9F1080000F06AFABBF1010FFF
:101B580025D895F83031013409F112090236A2B2BC
:101B680093422BD917F8012F002AF4D0D5F8643105
:101B78000021327833F81400D5F8683103EB0413E8
:101B880023F81200338801339BB233805FFA83FA5B
:101B98003A789A42D2D88A46A6F80080D0E7CAF3A3
:101BA8004001A9F1040000F03BFABBF1020FCAF3AF
:101BB8008001CED0484600F033FACAE7002395F8F2
:101BC8004802204909229842C5F8D8314FF480606C
:101BD800C5F8D011C5F8D4214FF400614FF4005274
:101BE800C5F8DC3108BF4FF48073C5F8E821C5E9B2
:101BF800780100221448C5E97B32C5F8F42102F0C7
:101C0800E3FE08B1FFBEFEE795F83021D5F8641170
:101C18000E48BDE8F84F02F0C1B90A4909224FF44D
:101C28008060C5F8D831C5E974124FF400614FF4EB
:101C38000052C5E97730C5E97912DAE70020024099
:101C4800880500244000024058070024F4060024B8
:101C5800704700BF10B592B0ADF804100180C9B24A
:101C6800149C0B29C460C0E901233FD090F801C03F
:101C7800BCF10F0F3AD8022A3FD0032A02D0012A1A
:101C880000D000220E92012B02D0022B18BF002395
:101C9800022C0F932CD0032C2AD0012C28D00023FF
:101CA8000A29109327D85C4A02EB812202610A298B
:101CB80014D8DFE801F0A39587796B5D4F41332590
:101CC8000600564BD3F8E01041F48061C3F8E010E9
:101CD800D3F8E03003F480630C930C9B01230DA927
:101CE800104603FA0CF30D9304F008F812B010BD77
:101CF8000A291094D7D90022D8E711220E92C2E7F8
:101D0800464BD3F8E01041F40071C3F8E010D3F863
:101D1800E03003F400730B930B9BDFE73F4BD3F8E2
:101D2800E01041F48071C3F8E010D3F8E03003F418
:101D380080730A930A9BD1E7384BD3F8E01041F03F
:101D48008001C3F8E010D3F8E03003F08003099372
:101D5800099BC3E7314BD3F8E01041F04001C3F8C9
:101D6800E010D3F8E03003F040030893089BB5E790
:101D78002A4BD3F8E01041F02001C3F8E010D3F863
:101D8800E03003F020030793079BA7E7234BD3F822
:101D9800E01041F01001C3F8E010D3F8E03003F090
:101DA80010030693069B99E71C4BD3F8E01041F00B
:101DB8000801C3F8E010D3F8E03003F008030593F6
:101DC800059B8BE7154BD3F8E01041F00401C3F8ED
:101DD800E010D3F8E03003F004030493049B7DE79C
:101DE8000E4BD3F8E01041F00201C3F8E010D3F82D
:101DF800E03003F002030393039B6FE7074BD3F82C
:101E0800E01041F00101C3F8E010D3F8E03003F02E
:101E180001030293029B61E7000002580044025844
:101E280008B5012143780069994089B204F068F93E
:101E3800003818BF012008BD01230A46417800690F
:101E480003FA01F189B204F061B900BF8378022B6B
:101E580030B504468FB037D0032B33D0012B31D0A7
:101E680000230A93E378012B2AD0022B28D00023E1
:101E78000B93002320460C9301F094FC0546204662
:101E880001F098FC23780990082B13D8DFE803F0B9
:101E98001F3245586B7E91A40500594BD3F8E020BA
:101EA80042F48072C3F8E020D3F8E03003F4807382
:101EB8000893089B09A9284603F020FF0FB030BDFE
:101EC8000B93D6E70A93CDE711230A93CAE74C4B45
:101ED80009A92846D3F8E02042F00102C3F8E0201F
:101EE800D3F8E03003F001030093009B03F006FFF2
:101EF8000FB030BD424B09A92846D3F8E02042F084
:101F08000202C3F8E020D3F8E03003F002030193A3
:101F1800019B03F0F3FE0FB030BD394B09A92846E9
:101F2800D3F8E02042F00402C3F8E020D3F8E03010
:101F380003F004030293029B03F0E0FE0FB030BDF0
:101F48002F4B09A92846D3F8E02042F00802C3F82D
:101F5800E020D3F8E03003F008030393039B03F079
:101F6800CDFE0FB030BD264B09A92846D3F8E02096
:101F780042F01002C3F8E020D3F8E03003F0100379
:101F88000493049B03F0BAFE0FB030BD1C4B09A9A3
:101F98002846D3F8E02042F02002C3F8E020D3F826
:101FA800E03003F020030593059B03F0A7FE0FB074
:101FB80030BD134B09A92846D3F8E02042F040026F
:101FC800C3F8E020D3F8E03003F040030693069B03
:101FD80003F094FE0FB030BD094B09A92846D3F889
:101FE800E02042F08002C3F8E020D3F8E03003F0AC
:101FF80080030793079B03F081FE0FB030BD00BF3D
:102008000044025838B5054601F0CCFB0446284682
:1020180001F0D0FB01462046BDE8384004F070B816
:1020280070B506460D4601F0BDFB0446304601F08A
:10203800C1FB2A1E0146204618BF0122BDE8704098
:1020480004F064B80023122270B586B0CDE90223EB
:1020580004930368032B01D804230593061D841DEC
:10206800304601F09FFB0546304601F0A3FB0346CE
:1020780001A92846019303F041FE204601F092FB96
:10208800034620461C4601F095FB01A9034620465D
:10209800019303F033FE06B070BD00BF634A0368C6
:1020A800934210B58CB028D0614A934258D0614A07
:1020B800934200F09480604A934201D00CB010BD66
:1020C8005E4C5F48D4F8E03043F00203C4F8E030D7
:1020D800D4F8E03003F002030A930A9BFFF7B2FF3B
:1020E800D4F8F43043F08003C4F8F430D4F8F43072
:1020F80003F080030B930B9BE0E7504C5148D4F856
:10210800E03043F00203C4F8E030D4F8E03003F0E4
:1021180002030193019BFFF795FFD4F8E8300022F2
:102128001F2043F400131146C4F8E830D4F8E8300F
:1021380003F400130293029BD4F8D83043F0010350
:10214800C4F8D830D4F8D83003F001030393039BC4
:1021580002F088FA1F200CB0BDE8104002F0C0BAA7
:10216800364C3948D4F8E03043F08003C4F8E03006
:10217800D4F8E03003F080030493049BD4F8E030F3
:1021880043F00203C4F8E030D4F8E03003F002036F
:102198000593059BFFF756FFD4F8E830002221206D
:1021A80043F480031146C4F8E830D4F8E83003F467
:1021B80080030693069BD4F8D83043F00103C4F893
:1021C800D830D4F8D83003F001030793079B02F006
:1021D80049FA21200CB0BDE8104002F081BA1B4832
:1021E800FFF730FF154B00224820D3F8E84011468E
:1021F80044F40004C3F8E840D3F8E84004F40004C9
:102208000894089CD3F8D84044F00104C3F8D84097
:10221800D3F8D83003F001030993099B02F022FA9E
:1022280048200CB0BDE8104002F05ABA00540040F3
:1022380000580040005C0040001C00580044025850
:10224800780A0024D8070024B80800249809002434
:102258002DE9F0431A4B87B000254FF010099E4630
:10226800EC46184BFF22E04667461A700EF1180636
:102278000EF13004CDE90055CDE90255ADF80090D6
:10228800BCE80F00CDE90455AEE80F009CE8030058
:102298000095ADF800908EE80300B8E80F000FC66F
:1022A8009CE803000095ADF8009086E803000FCF86
:1022B8000FC49CE8030084E8030007B0BDE8F0837E
:1022C80004000024D407002410B5EFF3108472B67C
:1022D800084B1A78120602D504B962B610BD1878F0
:1022E800054B40B2C0EBC00003EB4010143003F0C4
:1022F800B3F9F1E7D4070024D8070024014805F012
:102308003FB800BF64080024014805F039B800BF91
:1023180044090024014805F033B800BF240A00240A
:102328002DE9F0470C6884B0414DC4EBC403032C7D
:102338004FEA431705EB4313036043DCCB680E46B3
:10234800012B3FD84FEAC4084ED0A8EB0409B64683
:10235800DFF8FCA005EB4919BEE80F00CC46ACE855
:102368000F00DEF800300DF1100ECCF80030D9F86F
:1023780008C09AE80F000EE90F000EEB8403BCF1C9
:10238800010F53F8103CC9F88C3032D0BCF1020F61
:1023980043D0BCF1000F36D0327C8C37A8EB040454
:1023A80000232F44520005EB441501213846C5F897
:1023B800AC30C5E92521C5E92733C5E9293304F03F
:1023C800A1FC18B1012004B0BDE8F08701463846E9
:1023D80004F0E2FF0028F5D10146384605F006F87A
:1023E800003818BF0120EEE70B7C103B672BACD9F7
:1023F800E8E701F051F80F4B98420CBF0E4B0F4B1A
:10240800C9F89030C8E701F047F80A4B98420CBF6A
:102418000B4B0C4BC9F89030BEE701F03DF8054B6B
:1024280098420CBF084B094BC9F89030B4E700BF7D
:10243800D8070024000E27072D0FB0303211D02006
:102448005F4390608A62E030200BA0101A09801068
:10245800000C01082DE9F041D0F8008082B00D464B
:1024680017461E4608F18C04204604F091FF2028E8
:10247800FAD1D8F80C3073B96D002046089C334661
:102488003A46A9B2009404F093FC003818BF012022
:1024980002B0BDE8F081089B32463946204604F078
:1024A80045FEF2E7044B10221A7483F8F02083F8F3
:1024B800D02183F8B0227047D807002430B5002314
:1024C80095B04FF48071062204460B93069213933D
:1024D800CDE90C13CDE90E33CDE9113300F0DEFF61
:1024E80007282BD004F1100541F2883206A92846A6
:1024F80005F0BAFF28B10123184684F85C3015B0FE
:1025080030BD0222022306A92846CDE90023102265
:102518000123CDE9022300224FF48003CDE90423EF
:1025280005224FF0807306926A460F9341F2883372
:1025380006F006F90028DED115B030BD03230120CE
:1025480084F85C3015B030BD70B50023A4B04FF0EE
:1025580080724FF480750446ADF806300D93CDE9CE
:1025680010320122CDE90E53CDE91223CDE91433FF
:10257800002943D0F02300F1100508AEADF806306D
:10258800C02341F2883231462846089305F06CFF93
:1025980028B10123184684F85C3024B070BD41F29C
:1025A80088320DF10601284605F0C8FF03460028C9
:1025B800EFD105224FF480711E93284616924FF0F2
:1025C80080721B9321931F9202AA9FED1F7BCDE976
:1025D8001C13CDE922338DED027B9FED1D7B41F26B
:1025E800883316A98DED047B9FED1B7B8DED067B53
:1025F80006F0A6F80028CCD124B070BD00F1100573
:1026080008AE612341F2883231462846089305F026
:102618002BFF0028BDD141F288320DF10601284672
:1026280006F00AF80028B4D1BDF80630204623F099
:10263800780343F04003ADF80630FFF73FFF00286A
:102648009ED0A6E7AFF30080000000000100000064
:102658001000000001000000000000000000400021
:102668002DE9F04F00234FF4807501264FF0807854
:1026780004462DED028BABB08DF8073013932193F0
:10268800299314950E96CDF85C80CDE91533CDE9E4
:102698001863CDE91A33CDE92253CDE92433CDE9C6
:1026A800273306231C9300F0F9FE072808D004F10D
:1026B800100741F288321CA9384605F0D5FE40B112
:1026C8000123184684F85C302BB0BDEC028BBDE8C2
:1026D800F08F4FF0020A4FF0020B4FF0050941F25C
:1026E800883308AA1CA93846CDF89480CDF8709094
:1026F8009FED2D8BCDE908AB4FF0000A4FF4800B0E
:102708008DED0A8BCDE90CAB06F01AF80028D7D16D
:1027180041F2883238460EA905F0A6FE0028CFD12E
:10272800402341F288320DF1070138468DF8073011
:1027380005F004FF0028C3D141F288330EA902AA8C
:102748003846CDF83890CDF85C809FED197B8DED3B
:10275800048BCDE906AB8DED027B05F0F1FF034656
:102768000028ADD1CDF870904FF00109CDF89480D4
:102778004FF00008219308AA29931CA938462295EE
:10278800CDE92333CDE9273341F288338DED0A8B28
:10279800CDE90CABCDE9088905F0D2FF002893D02C
:1027A800304684F85C608FE71000000001000000EC
:1027B8004000000040000000F0B55F4CA3B00D469B
:1027C800046000F06BFE072844D028682346AA68F6
:1027D800696807C3AA89184620F8042B257B667BFD
:1027E80005F030FE80BB554A012DE06122614FF0B3
:1027F800010214BF4FF480134FF4000393FAA3F3BC
:10280800C4E90522002B00F08880B3FA83F3013B6A
:1028180000224FF480774A48C4E90837C4E90B22FC
:1028280005F0B4FD80B966230B90139041F288320D
:1028380006A90693CDE90C70CDE90E00CDE911008B
:102848003F4805F011FE58B10123184684F85C3062
:1028580023B0F0BD0323012084F85C3023B0F0BD21
:10286800992341F2883206A93548069305F0FCFD04
:102878000028E9D105231C9019906A4614934FF05B
:102888008073219014A91D9341F288339FED247B16
:10289800CDE91A70CDE91F008DED007B9FED227BFD
:1028A80027488DED027B9FED227B8DED047B05F0A3
:1028B80047FF0028C8D129461F48FFF745FE0028D2
:1028C800C2D11D48FFF7CCFE0028BDD1002EBFD1D4
:1028D8001890EB2300261A9714934FF440630027AF
:1028E80006AA1B934FF4404314A91C930623CDE971
:1028F8001F004FF08050199321904FF040701D90A9
:102908004FF400501790A02016900D48CDE90667A7
:1029180005F08EFF00289BD096E71F2378E700BFBD
:10292800000000000100000010000000010000008D
:102938000000000000004000580B00240050005226
:10294800680B00242DE9F04F8FB0414B002402683A
:1029580000AF9A427C63C7E90944C7E90B4403D036
:102968003C37BD46BDE8F08F3A4B40F609213A485E
:10297800EB46D3F8D42007F11C0607F1220A4FF0E2
:10298800020942F480424FF00308C3F8D420D3F878
:10299800D42002F48042BA60BA68D3F8E02042F04A
:1029A8004002C3F8E020D3F8E02002F04002FA60C9
:1029B800FA68D3F8E02042F02002C3F8E020D3F808
:1029C800E02002F020023A613A69D3F8E02042F0B0
:1029D8001002C3F8E020D3F8E02002F010027A6178
:1029E8007A69D3F8E02042F00202C3F8E020D3F875
:1029F800E030F86103F002033984BB61174B7B6058
:102A0800BB697B6853F8040F7B6000F0CBFE7B68E2
:102A18000546186800F0CEFE16F8013B786207F10B
:102A280024012846C7F830807B63C7E90A9403F07D
:102A380065F95645E5D100225C20114601F012FEE9
:102A48005C2001F04DFE3C37DD46BD46BDE8F08F09
:102A580000500052004402580A0A0909B40B002425
:102A6800114B02689A4200D07047104A70B5D2F8EC
:102A7800D4300F4C23F4804304F11806C2F8D43044
:102A880054F8040F00F08EFE0546206800F092FE10
:102A98000146284603F06CFAB442F1D15C20BDE847
:102AA800704001F02BBE00BF005000520044025895
:102AB800B40B0024014805F047BF00BF680B002491
:102AC800084B1A1D981D03F1080110B49C1C9A6646
:102AD80003F10A02C3E91834C3E91B015DF8044B8A
:102AE8005A677047580B002438B5036871B9026AF1
:102AF80000F1280500F5AC74012A0CBF0021402123
:102B08008BBB1D4B5722C0F858310DE0426A00F1CB
:102B1800C00500F5E874012A0CBF00214021EBB183
:102B2800164B5A22C0F8D03100232046C4E90121AF
:102B38004FF480524FF48061636262614FF48042C7
:102B4800C4E903314FF48073C4E906234FF400331A
:102B5800236201F039FF58B1FFBEFEE7084B582247
:102B6800C0F8D031E0E7074B5922C0F85831DBE70D
:102B7800C5E92044A56338BD10000240700002403A
:102B880028000240580002402DE9F043821D054606
:102B98008BB0031D05F10A010830CDE9052305F1C5
:102BA8000C02AB69CDE907010992002B3DD0EB6916
:102BB800B3FA83F84FEA58180123022205AE0AAF88
:102BC8004FF006090393CDE9012356F8044B2B79FE
:102BD8002278934216D02B68F3B1012B02D1F2B1BF
:102BE8000A230493204600F0E5FD0346204600939F
:102BF80000F0D8FD694603F081F8BE42E5D10BB07C
:102C0800BDE8F083697963789942E4D1B8F1000F9F
:102C1800F3D02B68002BE0D1CDF81090E2E7637871
:102C2800022B14BF0A230823DBE74FF00108C3E790
:102C3800534A0368934230B505468BB055D02032CD
:102C4800934252D04F4A934204D02032934201D04B
:102C58000BB030BD4C4C4D48D4F8E03043F0010384
:102C6800C4F8E030D4F8E03003F001030593059B85
:102C7800D4F8E03043F00803C4F8E030D4F8E0308A
:102C880003F008030693069BD4F8E03043F04003B2
:102C9800C4F8E030D4F8E03003F040030793079B12
:102CA800D4F8F03043F40003C4F8F030D4F8F0302E
:102CB80003F400030893089BFFF766FFD4F8D830A5
:102CC800296843F001032F4A3048C4F8D830891ADC
:102CD800D4F8D83018BF012103F001030993099BE8
:102CE8000BB0BDE83040FFF7FFBE274C2848D4F8AA
:102CF800E03043F00103C4F8E030D4F8E03003F0EA
:102D080001030093009BD4F8E03043F01003C4F8AB
:102D1800E030D4F8E03003F010030193019BD4F8BD
:102D2800E03043F04003C4F8E030D4F8E03003F07A
:102D380040030293029BD4F8F03043F48003C4F8B4
:102D4800F030D4F8F03003F480030393039BFFF7CB
:102D58001BFFD4F8D830296843F00103084A0C480F
:102D6800C4F8D830891AD4F8D83018BF012103F034
:102D780001030493049B0BB0BDE83040FFF7B4BED9
:102D880004580140045C0140004402582C0E002401
:102D9800D00B0024014802F05FBC00BF280D0024BE
:102DA800014802F059BC00BFA00D0024014802F000
:102DB80053BC00BF840F0024014802F04DBC00BF83
:102DC800FC0F0024000000002DE9F04F0C684FF4C0
:102DD8001776754F87B004FB06F6012C07EB060A39
:102DE800C0F800A000F3A0800D468E464FF0000802
:102DF800D44669A3D3E9002369A1D1E90001CDE94B
:102E0800022306ABCAF8508203EB8403CDE9040120
:102E180053F810BC53F8083CCAE992880193BEE8FD
:102E28000F00ACE80F00BEE80F00ACE80F00019BF4
:102E38009EE80300CAF828B0CAF8C0308CE803003E
:102E48002B69042B0CD8DFE803F0737D879103000E
:102E58004FF41773554A03FB04739A64C3F8E020D0
:102E6800AA692B6A002A43D0002B4FF4177308BFB6
:102E7800022203FB047318BF0322DA6201221A63D9
:102E8800EA696B6A002A40D1191E4FF4177318BFFC
:102E9800012103FB0473C3E931126B69022B05D8C6
:102EA800434A12F80380434A52F823904FF41773A9
:102EB80006F128004246494603FB047400233844BF
:102EC80063646363E365C4F8DC30C4F8CC30C4F8E9
:102ED800F430C4E90F33C4E91533C4E93533C4E920
:102EE8003B33022308F036F9002849D0FFBEFEE73D
:102EF800191E4FF4177318BF012103FB0473C3E9AC
:102F08000B12EA696B6A002ABED0002B4FF41773C4
:102F180008BF022203FB047318BF0322C3F8C420AE
:102F28000122C3F8C820B8E7012007B0BDE8F08F38
:102F38004FF417734FF4FA5203FB04739A64C3F8FF
:102F4800E0208DE74FF417734FF47A5203FB0473B4
:102F58009A64C3F8E02083E74FF417734FF4FA42FA
:102F680003FB04739A64C3F8E02079E74FF41773FE
:102F78004BF6803203FB04739A64C3F8E0206FE7D2
:102F880006F1C000022342464946384408F0E2F8F8
:102F98000028CAD0FFBEFEE704580140045C014087
:102FA80024580140245C0140D00B00240077010024
:102FB800B80C0108BC0C01080068704703681B695D
:102FC800042B05D8044A02EB830393ED000A7047EB
:102FD8009FED020A704700BFC80C010800803B47FC
:102FE800704700BF08B500F0EDFCBDE8084001F0EF
:102FF80001BC00BF064808B503680BB103F08AF8A6
:10300800044803681BB1BDE8084004F01BBA08BDBA
:10301800A015002490100024064808B503680BB1D9
:1030280003F078F8044803681BB1BDE8084004F0D1
:1030380009BA08BDA015002490100024064808B558
:1030480003680BB103F066F8044803681BB1BDE8D8
:10305800084004F0F7B908BDA0150024901000241A
:10306800364BDA6A520062D59A6A9A6A9A6A9B6AF9
:10307800180600D500BE314B9B6A990600D500BEE4
:103088002E4B9B6ADA0600D500BE2C4B9B6A1B07A9
:1030980000D500BE294B9B6A980700D500BE274B78
:1030A8009B6AD90700D500BE244B9B6A1A0400D539
:1030B80000BE224B9B6A9B0400D500BE1F4B9B6A37
:1030C800D80400D500BE1D4B9B6A190500D500BE6B
:1030D8001A4B9B6A5A0500D500BE184B9B6A9B0584
:1030E80000D500BE154B9B6AD80500D500BE134B12
:1030F8009B6A990100D500BE104B9B6ADA0100D586
:1031080000BE0E4B9B6A1B0300D500BE0B4B9B6A8F
:10311800580300D500BE094B9B6A990300D500BE31
:10312800064B9B6ADA0306D400BE00BEFEE7DB6AE4
:103138009B07FAD5F8E700BEF6E700BF00ED00E010
:1031480000F04CBC00F050BC0A4B9B6803F178437C
:10315800B3F5003F0BD3084B986848B1986801282D
:1031680006D09868022803D09B6803207047012086
:10317800704700BF00ED00E000008038000000004C
:103188002DE9F041CEB004464C2200210AA80DF0EA
:1031980023FD2022002102A80DF01EFDC0220021DF
:1031A8001EA80DF019FD022005F00AF82368012B6E
:1031B8004FF0000354D0584A02250193C820D16A21
:1031C800564B21F00101D162D26A02F0010201924C
:1031D8009A6942F440429A619B6903F4404301931F
:1031E800019B4E4A93699B04FCD54D490224002259
:1031F80001268B6A04274FF0080823F003032343B2
:103208008B62052316900AA818934FF48033109602
:10321800179419941597CDF86880CDE91B222122BF
:10322800CDE91344CDE90A2305F02EFD00B1FEE7F0
:103238003F220323294602A8CDE9022300220823BE
:10324800CDE9042340224023CDE9062340234FF44F
:103258008062CDE9082306F0B1F80346B8B1FEE76D
:103268002E4A04250093F02091692B4B41F44041EC
:103278009161926902F440420092DA6A42F00102D6
:10328800DA62DB6A03F001030093009BA9E72022BE
:1032980026932E9380212C924FF480523193062549
:1032A8003F931EA8279236924FF4803225914FF40F
:1032B8004011329247920022289580254091102192
:1032C800CDF888802B9720962A91CDE92F3440F2AB
:1032D800271329934FF480632D930023CDE92346C8
:1032E800CDE93C234FF480740C23449402242193A9
:1032F80007A3D3E90023CDE93445CDE91E2306F021
:1033080049FB00B1FEE704F07FFF4EB0BDE8F08155
:103318000F130F0300000000000400580048025873
:103328000044025870B584B0012401F011FA4FF43A
:1033380080764FF04052194B68460025ADF80040A2
:103348000396CDE9012301F021FA19224FF04043F9
:1033580068468DF8082001938DF80F40ADF80D6090
:103368008DF801408DF80A5001F010FA02230B2263
:1033780068468DF80F508DF801304FF062538DF884
:1033880008200193ADF80D408DF80A4001F0FEF9D0
:10339800042001F0EBF904B070BD00BF0E0001037A
:1033A80030B50D46044685B0D1E9000184E8030034
:1033B80000F0D8FAAB79002B63D00BF055FAFEF782
:1033C80047FF09F0C5FE0AF051FF2B795BB3304C7B
:1033D800636913F4803326D1C4F88430BFF34F8F68
:1033E800D4F8801043F6E07EC1F34E3CC1F3C90126
:1033F8004FEA4C1C0CEA0E000B4640EA8372013B74
:10340800C4F860225A1CF8D1ACF1200C1CF1200F32
:10341800F0D1BFF34F8F636943F480336361BFF327
:103428004F8FBFF36F8F6B79B3B1194A536913F498
:10343800003311D1BFF34F8FBFF36F8FC2F85032F3
:10344800BFF34F8FBFF36F8F536943F4003353615A
:10345800BFF34F8FBFF36F8F4FF0FF32002300246D
:10346800002569460B4802928DF80C30CDE90045DD
:103478000AF08EFA07480AF0F3FA09F099FA05B04B
:1034880030BD2046FFF77CFE2046FFF74BFF94E750
:1034980000ED00E08810002406F0F8B81C4B9B688B
:1034A80003F17842B2F5003F25D3B3F5803F20D32E
:1034B80003F16042B2F5003F1FD303F15C42B2F55D
:1034C800002F1CD303F17042B2F5902F19D303F1EA
:1034D8004842B2F5803F16D303F18042B2F1806FC3
:1034E80013D303F1E043B3F5000F2CBF08200720E6
:1034F8007047012070470020704702207047032062
:10350800704704207047052070470620704700BFA9
:1035180000ED00E003480023034A044903600DF06E
:1035280015BB00BF8810002400000024E92F000804
:1035380010B4204C0022204B83B0D4F888101F48C8
:1035480041F47001C4F8881019681D4C41F001015C
:1035580019601A61196808401A4918609A61DA6195
:103568001A629A62DA621A635A639A63DA631A64AD
:103578005A64186820F4802018601A66D3F8DC2092
:1035880042F06042C3F8DC20D3F8DC300193019BA1
:1035980023681940B1F1005F03D20B4B0122C3F835
:1035A8000821044B4FF000629A6003B05DF8044BA9
:1035B800704700BF00ED00E0004402587FEDF6EAD6
:1035C8000010005C0000FFFF0080005100F2C441C1
:1035D800D0F8080508F0F8BC01EBC10300EB830341
:1035E800D0F80805D3F8882208F01EBD01EBC10306
:1035F80000EB8303D0F808059A6C08F04FBD00BFB4
:10360800D0F8080508F0F8BD016910B5044619B1ED
:10361800022900D0FEE70121D4F8080508F0CCFD06
:10362800D4F80805BDE8104008F098BD10B5044668
:10363800D0F8080508F0C4FD2268D2F8003E43F02F
:103648000103C2F8003E236A23B1034A136943F019
:103658000603136110BD00BF00ED00E0D0F80805B7
:1036680008F0BEBDD0F8080508F0ECBDD0F8080594
:1036780008F0D2BDD0F8080508F0FABDD0F8080562
:1036880008F0F8BD9446D0F8C8021A4608B5634653
:1036980004F092FC032802D8024B185C08BD0320F2
:1036A80008BD00BFEC0C0108D0F8C80208B504F04A
:1036B80005FD032802D8024B185C08BD032008BD8D
:1036C800EC0C0108D0F8C80208B504F03BFD03284B
:1036D80002D8024B185C08BD032008BDEC0C010899
:1036E8000A06D0F8C83206D401EBC10103EB810108
:1036F80091F87E02704701F07F0101EBC10103EBF5
:10370800810191F83E007047D0F8C80208B504F06E
:103718003DFC032802D8024B185C08BD032008BDF5
:10372800EC0C0108D0F8C80208B504F0A5FC032881
:1037380002D8024B185C08BD032008BDEC0C010838
:10374800D0F8C80208B504F075FC032802D8024B6B
:10375800185C08BD032008BDEC0C0108D0F8000374
:1037680009F086B8D0F8000309F09AB8D0F8000339
:1037780009F0A2B8704700BFD0F8000309F088B874
:10378800D0F8000309F088B8D0F8D40308B503F0DE
:103798003BF9032802D8024B185C08BD022008BD7B
:1037A800F00C0108024B027853F82200704700BF62
:1037B800140D0108024B427833F81200704700BF1D
:1037C800F40C01088CB00A2814D8DFE800F015239F
:1037D800313F4D5B6977859306004D4BD3F8E02068
:1037E80042F48062C3F8E020D3F8E03003F4806349
:1037F8000B930B9B0CB07047454BD3F8E02042F07D
:103808000102C3F8E020D3F8E03003F0010301938C
:10381800019BEFE73E4BD3F8E02042F00202C3F8E9
:10382800E020D3F8E03003F002030293029BE1E7C3
:10383800374BD3F8E02042F00402C3F8E020D3F875
:10384800E03003F004030393039BD3E7304BD3F832
:10385800E02042F00802C3F8E020D3F8E03003F09B
:1038680008030493049BC5E7294BD3F8E02042F0F2
:103878001002C3F8E020D3F8E03003F010030593FA
:10388800059BB7E7224BD3F8E02042F02002C3F8AB
:10389800E020D3F8E03003F020030693069BA9E765
:1038A8001B4BD3F8E02042F04002C3F8E020D3F8E5
:1038B800E03003F040030793079B9BE7144BD3F8D2
:1038C800E02042F08002C3F8E020D3F8E03003F0B3
:1038D80080030893089B8DE70D4BD3F8E02042F452
:1038E8008072C3F8E020D3F8E03003F480730993C2
:1038F800099B7FE7064BD3F8E02042F40072C3F837
:10390800E020D3F8E03003F400730A930A9B71E7D0
:1039180000440258704700BF0F4B1B780BB90120B9
:10392800704710B504464FF47A700C4AB0FBF3F3B5
:103938001068B0FBF3F000F0F5FE0F2C00D808B1CA
:10394800012010BD002221464FF0FF3000F08AFE12
:10395800034B00201C6010BD540000244C000024C0
:103968005800002410B50320124C00F069FE05F041
:1039780085FC114B11499A699B69C2F3032203F034
:103988000F038A5CCB5C02F01F020D4903F01F0392
:10399800D04020FA03F308600E202360FFF7BCFF35
:1039A80010B10124204610BD0446FFF7B3FF20469E
:1039B80010BD00BF5000002400440258DC0C010870
:1039C8004C000024034A044B11681B780B44136015
:1039D800704700BFA418002454000024014B186845
:1039E800704700BFA418002438B50446FFF7F6FF57
:1039F8000546631C02D0044B1B781C44FFF7EEFFFE
:103A0800431BA342FAD338BD54000024014B186865
:103A1800000C70470010005C704700BF806B08B551
:103A2800FFF7FAFF08BD00BF836B5A6D12F0500F05
:103A38005A6D10B51DD1196842F400725A650A68AA
:103A480012F0080FCA681BD012F4406F0DD1CA6873
:103A580094040AD45A6D22F480725A655A6DD104BE
:103A680003D45A6D42F001025A651846FEF74CF825
:103A780010BDD2060AD4DB6CBDE81040DB6C1847D9
:103A88009007E7D01846FEF73FF8F1E71846FEF72B
:103A9800DFF810BD806B08B5436D43F04003436504
:103AA800836D43F004038365FEF7D2F808BD00BFB9
:103AB800F0B5002283B0019290F85020012A00F05E
:103AC800B880034601201A6883F850009468640798
:103AD80008D55A6D42F020025A65002283F850201A
:103AE80003B0F0BD0C68002CC0F2A180C4F313052C
:103AF800002D00F0978094FAA4F515B1B5FA85F574
:103B0800A840A40ED5692843D0614D681F2002F152
:103B1800300E04F01F04AE0905EA000C06F00C068E
:103B280000FA0CF704FA0CF456F80E0020EA070025
:103B3800044346F80E409068400776D4956815F01F
:103B4800080555D10C6802F1140607208F684FEA62
:103B5800D45CC4F304540CF0040C00FA04FE07FA15
:103B680004F4B64F5CF8060020EA0E0020434CF837
:103B78000600386800F07040B0F1805F00F0E8801F
:103B8800D068D668C70600F1EB80C6F3820648699C
:103B9800760000FA06F60F69042F7BD002F1600464
:103BA800086854F827C000F0F8400CF0004C40EAD0
:103BB8000C00304344F82700487E0E69012854F869
:103BC80026000CBF4FF00047002720F00040384384
:103BD80044F826000C7E0869012C04D100F01F006F
:103BE8004FF400658540106920F4F04005431561E5
:103BF8009068C40714D4CE680C6806F0180790487B
:103C0800D2F8C050F840C4F31307204025EA07054E
:103C18002843C2F8C0008B48864257D0002C0BDBE3
:103C280000205AE7A40EA0406CE79068E0E7A40ED5
:103C38006BE7022003B0F0BD83498A4200F0B680EA
:103C480001F580718A4200F0B180804D8048A968F2
:103C5800806801F0E076C04300F00100002800F021
:103C6800B4807C48844200F0FD807B48844200F0A8
:103C78001C817A488442D3D14902D1D474498A42FA
:103C8800CED1AA68002022F0E072324342F48002CA
:103C9800AA6022E7106E0C6800F0F840A506B0EBA9
:103CA800846F79D0506E00F0F84085426FD0906EE6
:103CB80000F0F840854274D0D06E00F0F84085429C
:103CC80096D1D06E20F00040D06691E7002F4ED0FC
:103CD80094FAA4F5002D00F08C80B5FA85F0013037
:103CE80000F01F06092E40F28480B5FA85F580069B
:103CF8000126013500F0F84094FAA4F405F01F05F8
:103D080006FA05F50543002C00F0DF80B4FA84F4C8
:103D1800A0196FF01D0600F01F04032010FB0460BB
:103D2800000540F000702843072402F11405C60D71
:103D3800C0F3045006F0040604FA00F7745924EAA4
:103D480007048F6807FA00F0204370510C6865E794
:103D5800D6684869C6F38206760000FA06F61AE7BE
:103D68007608486906F0080600FA06F613E7A40E76
:103D7800013404F01F06092E2DD8A506012005F0F0
:103D8800F845B040054306EB46000005CBE7506E0A
:103D980020F0004050668AE7106E20F00040106660
:103DA80080E7906E20F00040906685E726482C4D0D
:103DB80000F58070A96850F8F86C8068304301F00D
:103DC800E076C04300F0010048E75A6D012042F058
:103DD80020025A6581E606EB4600A50601241E3836
:103DE80005F0F84504FA06F60005354340F0007082
:103DF80099E794FAA4F000286ED0B0FA80F0013068
:103E0800800600F0F84094FAA4F5002D62D0B5FAC7
:103E180085F50126013505F01F0506FA05F5054368
:103E280094FAA4F4002C52D0B4FA84F4013404F0C7
:103E38001F0404EB4404200575E700BF0010005C74
:103E4800FFFF0F000000FF470020024000630258F8
:103E580000600258000084CB000052C70000B8CFB1
:103E68000023024008023FF5DBAE1D498A427FF479
:103E7800D7AE1C4A1C481268A968920921F0E07163
:103E8800A0FB02023143920941F400010132A9600A
:103E980052000192019A002A3FF4C2AE019A013AF7
:103EA8000192019A002AF9D1BAE611F080707FF4E4
:103EB800B7AE0B498A427FF4B3AEAA6822F0E0722B
:103EC800324342F08072AA6007E608482BE74FF4B5
:103ED800401028E70225A2E74FF0806093E700BF73
:103EE800006002584C000024632D3E05000050FE7F
:103EF80003689A68D10701D5002070479968214A5C
:103F0800114270B504462CD199681F4A0A4042F004
:103F180001029A60FFF762FD23681C4A0546934236
:103F280028D002F58072934224D0194A92681A6800
:103F3800D60714D4144E9A68D00704D49A6832402D
:103F480042F001029A60FFF749FD431B022B2368E8
:103F580002D91A68D10704D51A68D207EBD5002010
:103F680070BD636D012043F010036365A36D0343C7
:103F7800A36570BD074A9268D206D8D0064A934214
:103F8800D5D1ECE73F000080C0FFFF7F0020024052
:103F98000063025800230240002102402DE9F0414D
:103FA8003E4D044600680F461646A84219D03C4BC1
:103FB800984216D03B4DAB688068420716D494F8F7
:103FC8005020012A12D003F01F080122B8F1090F6E
:103FD80084F850200DD90023012084F85030BDE822
:103FE800F081314DAB6880684207E8D50220BDE812
:103FF800F08140F2212323FA08F3DB4313EA020598
:10400800E9D12046FFF774FF002841D1626D274BA4
:104018002168134043F480736365B8F1000F02D040
:104028001F4B994203D0636D23F480136365636D5E
:1040380013F4805330D0A36D23F00603A365E06C1E
:1040480033461B4D3A46E66A4031C563194D05644F
:10405800194DC5641C2541F8405C002584F8505072
:1040680051F83C5C45F0100541F83C5C51F8345C73
:1040780025F00305354341F8345C00F013FF22684E
:104088000E4B91680B4043F004039360BDE8F08148
:1040980084F85050BDE8F081A365D0E700200240C5
:1040A800002102400063025800230240FEF0FFFF97
:1040B800313A0008253A00089D3A0008C0FFFF7F02
:1040C80038B503689A68950702D59B68002038BD03
:1040D8009A68D40729D59A68044602F00D02012A85
:1040E80008D0636D012043F010036365A36D03439B
:1040F800A36538BD986803210D4A024042F00202C8
:104108009A601960FFF76AFC236805469B68D9071F
:104118000BD5FFF763FC401B2368022802D99A6875
:10412800D207DED49B68DB07F3D4002038BD00BF7C
:10413800C0FFFF7F38B5574A04460368934226D02C
:1041480002F58072934222D0534B9B6813F4403F90
:1041580022D005F05BFA63680546B3F5003F00F02E
:104168008880B3F5403F6CD0B3F5803F00F0818084
:10417800FFF74CFC41F2030398424BD8474B9D4252
:104188002AD92268936843F48073936038BD444BFE
:104198009B6813F4403FDCD14FF40020002106F067
:1041A80049FC63680546B3F5101F6CD008D8B3F511
:1041B800E01F50D016D9B3F5001FD9D14509D7E76C
:1041C800B3F5201F45D0B3F5301FD1D1FFF71EFC42
:1041D80041F20303984240D82268936823F480731D
:1041E800936038BDB3F5801F06D00AD9B3F5A01F78
:1041F80002D0B3F5C01FBBD19B0C5B00B5FBF3F538
:10420800B6E7B3F5002FF7D023F40022B2F5802FDC
:10421800F2D0ADE7234B9D4205D82268936823F47A
:104228004073936038BD204B9D421AD91F4B2268BA
:104238009D42936829D823F4407343F40073936034
:1042480038BD8508FFF7E2FB41F203039842E1D845
:1042580094E7C5098CE705098AE7124BB3EB152FDC
:10426800DBD22268936823F4407343F4807393602D
:1042780038BD1B0CB5FBF3F5FFF7C8FB41F2030390
:104288009842C7D87AE7850972E743F44073936088
:1042980038BD00BF0020024000630258002D3101E4
:1042A8000023024021BCBE0041787D0181F0FA0262
:1042B80070B5002382B00193002800F0D180456DCD
:1042C8000446002D00F0BB80226893689D0003D54A
:1042D8009168724B0B4093609368D80016D4704B6A
:1042E80070491B6890689B09A1FB03136E499B09E1
:1042F8000140013341F0805191600193019B2BB142
:10430800019B013B0193019B002BF9D19368D900D4
:1043180024D4636D012543F010036365A36D2B431B
:10432800A365936813F0040F636D1DD1DB061BD4DE
:10433800636D23F4817343F0020363659368DE07BA
:1043480028D45A4B9A4217D003F580739A4213D057
:10435800574B9B68D9071DD4564A15E0936800252A
:1043680013F0040F636DE1D0636D012543F0100372
:104378002846636502B070BD4C4A4F4B92689B68F3
:104388001343D80706D44D4A9368616823F47C1315
:104398000B439360FFF73AFB41F20303A16898428D
:1043A800237F52D894F815C01A04206B42EA4C3285
:1043B80002430A43012B03D1236A013B42EA4342E9
:1043C800636A23B103F47873A16A0B431A43236821
:1043D8003B49D86801400A43DA609A6812F0040F32
:1043E8009A681CD112071AD4D868364A217D02402F
:1043F80042EA8132E16A0A43DA6094F83820012AF5
:104408003AD01A6922F001021A611A692046616BD2
:1044180022F070420A431A61FFF78CFE2368E268B3
:10442800012A21D01A6B22F00F021A63636D284605
:1044380023F0030343F00103636502B070BDFDF789
:1044480011FBA56584F850503EE71029AAD1617D7B
:104458001A0442EA4132216B0A4342F01C02A9E7DE
:104468000125284602B070BD196BA26921F00F0121
:10447800013A0A431A63D9E7D4E90F12666C013985
:104488001869324342EA0142A16C0A430E490140CD
:104498000A4342F001021A61B7E700BFC0FFFF5F9D
:1044A8004C000024632D3E05C0FFFF6F0020024032
:1044B80000600258006302580021024000230240B5
:1044C80003C0F0FFFCBFFFFF1EF800FCF0B500239F
:1044D80083B0019390F85030012B40D0012304465B
:1044E8000E46154680F85030FFF7EAFDE8B9676DCB
:1044F80005F080421B4B06F480311B4D3B401B4F9F
:1045080043F00203636523689E68354015430D43F5
:1045180045F000459D609A68002A0FDB636D23F023
:10452800030343F00103636503E0636D43F0100385
:104538006365002384F8503003B0F0BD019A01325E
:104548000192019ABA42E6D3636D0022012023F05A
:10455800120384F8502043F010036365ECE702204F
:1045680003B0F0BDFDEEFFFFC0FFFE3F00F8C3251E
:10457800F0B490F850209AB00E68012A4DD0034646
:104588002B4C002201201D681692A54283F850008A
:10459800179208D0596D83F8502041F020015965D1
:1045A8001AB0F0BC7047234CA26852070BD5AA6812
:1045B8005A6D012042F020025A65002283F85020EB
:1045C8001AB0F0BC7047A86810F00400F0D1C6B16A
:1045D800DFF868C04F68DCF8082022F440423A430C
:1045E800CCF80820AD68A2682A43D40713D48A6897
:1045F800DCF808101643104A0A401643CCF8086045
:10460800DBE70E498A6822F440428A60A868A268FB
:104618000243D00705D50020CFE702201AB0F0BC2E
:1046280070478C683046044A22408A60C5E700BF5C
:104638000020024000210240E0F0FFFF002302407A
:1046480006494FF6FF0C0002054BCA6800F4E0600B
:1046580002EA0C0210430343CB60704700ED00E010
:104668000000FA051B4BDB68C3F3022300B5C3F156
:10467800070E03F1040CBEF1040F28BF4FF0040E1F
:10468800BCF1060F1AD9033B4FF0FF3C0CFA03FCB0
:1046980022EA0C024FF0FF3C00280CFA0EFC21EA3B
:1046A8000C0101FA03F141EA02010ADB09010A4B94
:1046B800C9B2034483F800135DF804FB00221346D3
:1046C800E8E700F00F000901044BC9B2034419766A
:1046D8005DF804FB00ED00E000E100E0FCEC00E028
:1046E800002807DB012300F01F01034A40098B4023
:1046F80042F82030704700BF00E100E000280DDBE1
:104708004309012200F01F000549203302FA00F096
:1047180041F82300BFF34F8FBFF36F8F704700BF7F
:1047280000E100E0431EB3F1807F0CD24FF0E0229D
:10473800002006494FF0F00C5361072381F823C08D
:104748009061136170470120704700BF00ED00E0E1
:10475800BFF35F8F044B00215A6A22F480325A62F9
:10476800C3F89410704700BF00ED00E0064B40F01E
:104778000100C3F894005A6A42F480325A62BFF3C7
:104788004F8FBFF36F8F704700ED00E0174A4378F3
:10479800C2F89830017821B3436800B5C2F89C305C
:1047A800C37A90F80CC01B0690F80FE043EA0C732C
:1047B80090F80AC00B43817B43EACC4390F80DC0C4
:1047C80043EA8C4390F809C043EA4143017A43EA3B
:1047D8000E4343EA0C2343EA4103C2F8A0305DF8D4
:1047E80004FBC2F89C10C2F8A010704700ED00E06E
:1047F800704700BF08B5FFF7FBFF08BD0268344BE0
:10480800344930B4344D354CAA4218BF9A420CBFD3
:10481800012300238A4208BF43F001033031A2423A
:1048280008BF43F0010330348A4208BF43F0010354
:104838003031A24208BF43F0010330348A4208BF36
:1048480043F0010301F55C71A24208BF43F0010384
:1048580004F55C748A4208BF43F001033031A24278
:1048680008BF43F0010330348A4208BF43F0010314
:104878003031A24208BF43F0010330348A4208BFF6
:1048880043F001033031A24208BF43F001038A42DA
:1048980008BF43F0010313B9114B9A4213D1D3B2A5
:1048A8001049114C103BA1FB03515F2B0F4BC1F377
:1048B800021103EA0203615C88BF0433C1658365A2
:1048C800184630BC704722F0FF038365F8E700BF45
:1048D80010000240400002402800024058000240F8
:1048E800B8040240ABAAAAAA440D010800FCFFFFC5
:1048F8000368294A294930B4294D2A4CAB4218BFCC
:1049080093420CBF012200228B4208BF42F00102F1
:104918002831A34208BF42F0010228348B4208BF65
:1049280042F001022831A34208BF42F001028B4243
:1049380008BF42F0010212B91B4A934213D1DBB2FD
:104948001A4C1B4A0121083B1A4DA4FB0343456638
:1049580002EB1312C3F30413920001FA03F3026685
:10496800836630BC7047DAB21349144C1944103AC4
:10497800A829A4FB02234FEA131300D80833104ACE
:1049880003F01F0501210F4C1A44A9404466920008
:1049980081660266E5E700BF0854025830540258A1
:1049A8001C5402584454025894540258CDCCCCCCD0
:1049B8000096001680580258F0FBFDBFABAAAAAAC1
:1049C8000082001080080240F8B50446FFF706F898
:1049D800002C00F0778123680546924A934248D01C
:1049E8001832934245D030328F498B4218BF9342D8
:1049F80001F130010CBF012200228B4208BF42F0B6
:104A0800010218318B4208BF42F0010218318B4273
:104A180008BF42F0010218318B4208BF42F0010280
:104A280001F556718B4208BF42F0010218318B42E2
:104A380008BF42F0010218318B4208BF42F0010260
:104A480018318B4208BF42F0010218318B4208BF6F
:104A580042F0010218318B4208BF42F001021831BE
:104A68008B4208BF42F001021AB9704A934240F0E3
:104A780098810022022184F8342084F835101A68BD
:104A880022F001021A6006E0FEF7A8FF431B052B7F
:104A980000F2FF8023681A68D607F5D4D4E9022506
:104AA80020692A43A1691D68024360690243E069DD
:104AB8000A4302435E482840256A2A435D4D024363
:104AC800606A042800F000812E685B4D3540B5F11E
:104AD800005F80F0BB801A605A6922F00702024327
:104AE8005A612046FFF78AFEE26D3F2302F01F025B
:104AF8009340836022684B4B50484B49824218BF11
:104B08009A4200F130000CBF012300238A4208BFFB
:104B180043F001033031824208BF43F001033030D3
:104B28008A4208BF43F001033031824208BF43F094
:104B3800010330308A4208BF43F0010301F55C717C
:104B4800824208BF43F0010300F55C708A4208BF47
:104B580043F001033031824208BF43F00103303093
:104B68008A4208BF43F001033031824208BF43F054
:104B7800010330308A4208BF43F0010330318242DA
:104B880008BF43F0010330308A4208BF43F00103F5
:104B98002B49824208BF43F001032A488A4208BFD2
:104BA80043F001032831824208BF43F00103283053
:104BB8008A4208BF43F001032831824208BF43F00C
:104BC800010328308A4208BF43F00103283182429A
:104BD80008BF43F001038A4208BF43F0010313B939
:104BE800194B9A4218D12046FFF782FEA368802B02
:104BF8005CD06368A06EDAB2013BD4E91851072B88
:104C08002A60486059D8501E07286ED9626FD4E9C7
:104C18001B31002018604A6000200123606584F879
:104C28003530F8BD1000024040000240B804024090
:104C38003F8010FE0010005C0000FFFF28000240CB
:104C4800085402581C540258945402586568A5F137
:104C580029061F2E24D94F3D032D01D842F4801276
:104C68001A6004285A6922F0070242EA00027FF417
:104C780037AFE56AA06A0243002D3FF431AF00293F
:104C880069D1012800F0888030F002017FF428AF54
:104C980069E0202203230120626584F83530F8BDDD
:104CA800734D25FA06F6F507DAD5D7E70023A16E86
:104CB800D4E918026360036051600023C4E91B3320
:104CC8006367A9E70120F8BD2F68D4E90B562E4386
:104CD8003243684E3E40B6F1005FB7D21A605A6957
:104CE80022F0070242F00402C4E72168624B634DD8
:104CF800A94218BF994205F114050CBF01230023EE
:104D0800A94208BF43F001031435A94208BF43F084
:104D180001031435A94208BF43F001031435A94221
:104D280008BF43F001031435A94208BF43F001034B
:104D38003BB9534B994204D0524B534913449B00FF
:104D480003E0524B524913449B0001228240C4E9BC
:104D58001B3162675DE7B1F5005F0ED0022805D907
:104D680003287FF4BDAEE9017FF5BAAE01234022E6
:104D78001846626584F83530F8BD03283FF6B0AEB2
:104D880001A151F820F000BF754D00086F4D0008D3
:104D9800754D0008A14D0008B5F1C07F7FF4A0AEA5
:104DA800E4E7354A35483B49834218BF934200F14E
:104DB80028000CBF012200228B4208BF42F00102EA
:104DC8002831834208BF42F0010228308B4208BFD5
:104DD80042F001022831834208BF42F001028B42AF
:104DE80008BF42F0010212B9254A934238D1002285
:104DF8000221294D84F8351084F834201A681540AA
:104E0800A268402A2AD0802A0CBF4FF48040002094
:104E1800266AD4E90312D20842EAD102616942EA59
:104E2800D102A16942EAD102E16942EAD1021B49F1
:104E380042EA161219442A4302431948A0FB010109
:104E480020461A600B099B00E365FFF7D7FCE26D6B
:104E5800012302F01F02934043604BE61020D7E77E
:104E6800402203230120626584F83530F8BD00BF75
:104E78003F00C0C30000FFFF085402581C540258EA
:104E8800945402583F820010400902403F96001691
:104E980040590258305402580F00FEFFF8ABFDA7E6
:104EA800CDCCCCCC002800F07781844690F8340033
:104EB800012800F0738101202DE9F0479CF8354066
:104EC8008CF83400844208D04FF400620023CCF8F8
:104ED80054208CF83430BDE8F0870220DCF800401C
:104EE800534D8CF835000020524ECCF854005248EF
:104EF800AC4218BF844205F118050CBF0120002000
:104F0800AC4208BF40F001001835AC4208BF40F081
:104F180001001835AC4208BF40F001001835AC421A
:104F280008BF40F0010005F55675AC4208BF40F0D7
:104F380001001835AC4208BF40F001001835AC42FA
:104F480008BF40F001001835AC4208BF40F001002E
:104F58001835AC4208BF40F001001835AC4208BF14
:104F680040F001001835AC4208BF40F00100183588
:104F7800AC4214BF814640F00109A5F59265AC42E8
:104F880018BFB4420CBF0125002502D0B9F1000FAB
:104F980054D02668DCF858A026F001062660002DBB
:104FA80078D0DCE919677760DCF86C7017B1DCE958
:104FB8001C607060DCF85C604FF03F0E06F01F0864
:104FC8000EFA08FECAF808E0266826F4802626604D
:104FD8006360DCF80830402B00F0E280A160E260FA
:104FE8001DB9B9F1000F00F0E180236823F01E031A
:104FF80043F016032360DCF840301BB1236843F00C
:1050080008032360DCF860301A68D20303D51A68F5
:1050180042F480721A601FB13B6843F480733B60AE
:105028002368002043F001032360BDE8F08700BF38
:10503800580002401000024040000240614F624E9A
:10504800DCF858A0B44218BFBC4206F128060CBFD1
:1050580001270027B44208BF47F001071436B442BD
:1050680008BF47F001071436B44208BF47F00107EC
:105078001436B44208BF47F00107266826F0010637
:105088002660524EB44208BF47F0010717B9504F87
:10509800BC420BD1DCE919677760DCF86C7017B19A
:1050A800DCE91C064660B9F1000F83D1464FDFF8F2
:1050B80014E1744518BFBC420EF1140E0CBF012751
:1050C8000027744508BF47F001070EF1140E744518
:1050D80008BF47F001070EF1140E744508BF47F0EA
:1050E80001070EF1140E744508BF47F001070EF1D1
:1050F800140E744508BF47F0010717B9344FBC4276
:1051080054D1DCF85C00012700F01F0E07FA0EF7F7
:10511800CAF804706360DCF80830402B43D0A16003
:10512800E260236823F00E0343F00A032360DCF8EF
:105138004030002B2DD0236843F004032360214B1B
:10514800214A944218BF9C4202F128020CBF012355
:105158000023944208BF43F001031432944208BF6D
:1051680043F001031432944208BF43F001031432A0
:10517800944208BF43F001031432944208BF43F03D
:1051880001031432944208BF43F00103002B3FF49B
:1051980047AFDCF86C7035E7012070470220704794
:1051A800A260E1601CE7A260E160BAE7236823F02F
:1051B8000E0343F00A032360DCF84030002BBAD119
:1051C800BDE700BF1C5402580854025880540258C6
:1051D8009454025870B50546FEF700FC002D00F007
:1051E800248195F83530022B40F0DD802C68064686
:1051F8008F4B9048904A844218BF9C4200F130007F
:105208008E490CBF01230023844208BF43F00103E9
:105218001830844208BF43F001031830844208BFA5
:1052280043F001031830844208BF43F0010300F53E
:105238005670844208BF43F001031830844208BF07
:1052480043F001031830844208BF43F001031830CB
:10525800844208BF43F001031830844208BF43F07A
:1052680001031830844208BF43F001031830844218
:1052780008BF43F001031830844208BF43F001031C
:105288008C4218BF94420CBF0122002202D0002B8E
:1052980000F09080216821F01E012160616921F0F1
:1052A80080016161002A00F0B0802A6E136823F43F
:1052B80080731360236823F00103236005E0FEF781
:1052C8008DFB831B052B00F2A6802368DB07F6D431
:1052D8002A68574B57485A49824218BF9A4200F1E8
:1052E80048000CBF012300238A4208BF43F0010392
:1052F8003031824208BF43F0010330308A4208BF90
:1053080043F0010301F55C71824208BF43F00103D9
:1053180000F55C708A4208BF43F0010330318242D5
:1053280008BF43F0010330308A4208BF43F001034D
:105338003031824208BF43F0010330308A4208BF4F
:1053480043F001033031824208BF43F001038A422F
:1053580008BF43F0010318318A4208BF43F0010334
:1053680033B9A1F59561354B9A4218BF8A426FD17E
:10537800EA6D3F23A96D02F01F0293408B60EB6E2C
:10538800D5E91921516033B11A68D5E91C1022F406
:1053980080721A60486000230122184685F835207B
:1053A80085F8343070BD8022002301206A6585F8B5
:1053B800343070BD2268234922F00E022260224A4E
:1053C8008C4218BF944201F128010CBF012200222F
:1053D8008C4208BF42F0010214318C4208BF42F0EF
:1053E800010214318C4208BF42F0010214318C4290
:1053F80008BF42F0010214318C4208BF42F001029A
:105408001AB9124A94427FF455AF296E0A6822F4F9
:1054180080720A604EE7202103220023012069657B
:1054280085F8343085F8352070BD012070BD00BF87
:10543800580002404000024010000240280002408C
:1054480070000240085402581C54025894540258E0
:10545800E86D0121164B00F01F00164C8140A24256
:1054680018BF9A42A86D0CBF01230023416012485F
:105478001249824208BF43F0010328308A4208BF1C
:1054880043F001032831824208BF43F001038A42F6
:1054980008BF43F0010314318A4208BF43F00103F7
:1054A800002B7FF46CAF064B9A423FF468AF72E76B
:1054B8001C54025808540258305402584454025894
:1054C8009454025800285FD038B590F83520034628
:1054D800022A55D10168574A914248D01832914260
:1054E80045D03032544C5548A14218BF914204F17E
:1054F80048040CBF01220022814208BF42F0010289
:105508003030A14208BF42F001023034814208BF66
:1055180042F0010200F55C70A14208BF42F00102AE
:1055280004F55C74814208BF42F001023030A142A8
:1055380008BF42F001023034814208BF42F0010244
:105548003030A14208BF42F001023034814208BF26
:1055580042F001023030A14208BF42F0010281420C
:1055680008BF42F0010212B9354A91420ED1042215
:10557800002083F835200B6823F001030B6038BD49
:10558800802201205A6538BD012070472D4A2E4DD2
:105598000868A94218BF91422C4C20F00E0005F172
:1055A8003C050CBF012200220860A14208BF42F05E
:1055B800010208682834A94208BF42F0010220F01D
:1055C8000100A14208BF42F0010214340860A14260
:1055D80008BF42F001021E48814208BF42F00102A2
:1055E80012B91C4A914217D101229D6DD3E91704C3
:1055F800216800F01F0021F48071824021606A60F8
:10560800DA6ED3E91910486032B11168D3E91C0485
:1056180021F4807111604460012100241A6D83F81F
:10562800351083F834401AB118469047204638BDE3
:10563800104638BD10000240400002407000024091
:10564800B80402401C5402580854025830540258F6
:1056580080540258945402582DE9F04300229C4B80
:1056680083B09C4E1D688146019203689A4A846DF6
:10567800934218BFB342276808BF0126216818BFA4
:10568800002645D018329548834218BF934200F14E
:1056980018000CBF01220022834208BF42F0010219
:1056A8001830834208BF42F001021830834208BF15
:1056B80042F001021830834208BF42F0010200F5AF
:1056C8005670834208BF42F001021830834208BF77
:1056D80042F001021830834208BF42F0010218303C
:1056E800834208BF42F001021830834208BF42F0EB
:1056F80001021830834208BF42F001021830834289
:1057080008BF42F001021AB9754A934240F050822C
:10571800D9F85C10082201F01F0C02FA0CF21742AB
:1057280040F0888127FA0CF2D2070CD55A69100686
:1057380009D5012202FA0CF2A260D9F8542042F0ED
:105748000202C9F854204FF0040E0EFA0CF0384249
:105758005BD0002E4FD1614ADFF88881434518BFDE
:10576800934208F130080CBF01220022434508BFCC
:1057780042F0010208F11808434508BF42F001024F
:1057880008F11808434508BF42F0010208F118085B
:10579800434508BF42F0010208F55678434508BF63
:1057A80042F0010208F11808434508BF42F001021F
:1057B80008F11808434508BF42F0010208F118082B
:1057C800434508BF42F0010208F11808434508BFE5
:1057D80042F0010208F11808434508BF42F00102EF
:1057E80008F11808434508BF42F001021AB93C4ABB
:1057F800934240F019821A68920706D5A060D9F83A
:10580800542042F00402C9F85420102202FA0CFC79
:105818001CEA070F6CD0002E45D1304A314EB342F6
:1058280018BF934206F130060CBF01220022B34292
:1058380008BF42F001021836B34208BF42F0010225
:105848001836B34208BF42F001021836B34208BF07
:1058580042F0010206F55676B34208BF42F0010253
:105868001836B34208BF42F001021836B34208BFE7
:1058780042F001021836B34208BF42F0010218365E
:10588800B34208BF42F001021836B34208BF42F0E3
:1058980001021836B34208BF42F001021AB9104A91
:1058A800934240F0C9811A68100721D5C4F808C08E
:1058B8001A68560300F14C811A68D20503D41A6895
:1058C80022F008021A60D9F840308BB10CE000BF12
:1058D8004C000024100002402800024058000240FA
:1058E800B80402404000024048469847D9F85C1086
:1058F80001F01F0120268E403E4268D0D9F80020D2
:10590800A54BA64FBA4218BF9A4207F118070CBF19
:1059180001230023BA4208BF43F001031837BA42F3
:1059280008BF43F001031837BA4208BF43F0010328
:105938001837BA4208BF43F001031837BA4208BF04
:1059480043F001031837BA4208BF43F0010307F5D3
:105958005677BA4208BF43F001031837BA4208BF66
:1059680043F001031837BA4208BF43F00103183760
:10597800BA4208BF43F001031837BA4208BF43F0E0
:1059880001031837BA4208BF43F001031837BA4277
:1059980008BF43F001031BB9814B9A4240F0628172
:1059A8001368DB0613D5A66099F83530042B136805
:1059B80000F0AE8013F4802F136800F0D3801C032E
:1059C80040F1DE80D9F83C300BB148469847D9F809
:1059D8005430002B00F0B980D9F85430D8071FD5BF
:1059E800D9F80020042189F83510136823F0010341
:1059F80013606C4BA3FB0535AD0A02E01368D907A9
:105A080004D5019B0133AB420193F7D91368DB0737
:105A18004CBF0323012389F83530002389F834303B
:105A2800D9F84C30002B00F09080484603B0BDE810
:105A3800F0431847186840070AD5186820F0040092
:105A48001860A260D9F8542042F00102C9F8542025
:105A580027FA0CF2D2077FF576AE534A53488342B1
:105A680018BF934200F130000CBF0122002283428C
:105A780008BF42F001021830834208BF42F0010219
:105A88001830834208BF42F001021830834208BF31
:105A980042F0010200F55670834208BF42F001024D
:105AA8001830834208BF42F001021830834208BF11
:105AB80042F001021830834208BF42F00102183058
:105AC800834208BF42F001021830834208BF42F007
